:0200000460009A
:100000004643464200000156000000000103030081
:1000100000000000000000000000000000000000E0
:1000200000000000000000000000000000000000D0
:1000300000000000000000000000000000000000C0
:1000400000000000010408000000000000000000A3
:100050000000800000000000000000000000000020
:100060000000000000000000000000000000000090
:100070000000000000000000000000000000000080
:10008000EB04180A063204260000000000000000FD
:10009000050404240000000000000000000000002F
:1000A0000000000000000000000000000000000050
:1000B0000604000000000000000000000000000036
:1000C0000000000000000000000000000000000030
:1000D00020041808000000000000000000000000DC
:1000E0000000000000000000000000000000000010
:1000F0000000000000000000000000000000000000
:10010000D8041808000000000000000000000000F3
:100110000204180804200000000000000000000095
:1001200000000000000000000000000000000000CF
:10013000600400000000000000000000000000005B
:1001400000000000000000000000000000000000AF
:10015000000000000000000000000000000000009F
:10016000000000000000000000000000000000008F
:10017000000000000000000000000000000000007F
:10018000000000000000000000000000000000006F
:10019000000000000000000000000000000000005F
:1001A000000000000000000000000000000000004F
:1001B000000000000000000000000000000000003F
:1001C000000100000010000001000000000000001D
:1001D000000001000000000000000000000000001E
:1001E000000000000000000000000000000000000F
:1001F00000000000000000000000000000000000FF
:10020000FFFFFFFFFFFFFFFFFFFFFFFFFFFFFFFFFE
:10021000FFFFFFFFFFFFFFFFFFFFFFFFFFFFFFFFEE
:10100000D100204325160060000000000000000011
:10101000201000600010006000B4056000000000B7
:101020000000006000C0050000000000FFFFFFFF9F
:10103000FFFFFFFFFFFFFFFFFFFFFFFFFFFFFFFFC0
:10104000FFFFFFFFFFFFFFFFFFFFFFFFFFFFFFFFB0
:10105000FFFFFFFFFFFFFFFFFFFFFFFFFFFFFFFFA0
:10106000FFFFFFFFFFFFFFFFFFFFFFFFFFFFFFFF90
:10140000884207D0904205D251F8043B40F8043B93
:101410008242F9D8704700BF884204D2002340F8C6
:10142000043B8142FBD870472DE9884800F012F94F
:101430000824614B614AC3F8544161496148FFF790
:10144000DFFF614A61496248FFF7DAFF614962489C
:10145000FFF7E2FF614C4FF0E0214FF470000023F2
:101460005F4AC1F8880D44F823200133B02BFAD12C
:101470005C4B80215C4A03F8011B9342FBD14FF087
:10148000E0254D4E4FF08039DFF88CB1DFF88CA1AC
:101490004FF0FF31C5F8084D0027C6F80491C6F893
:1014A00000B1C6F8F490C6F8F0A0D5F8243DDFF8F6
:1014B000708143F4E0234D4AC5F8243DD8F81C3030
:1014C00023F07F0343F04003C8F81C30D8F82430E1
:1014D00023F07F0343F04003C8F824309166D166BF
:1014E0001167516700F0BEF8414B4249A363424B7C
:1014F000E36363236B610323AF612B613F4BC5F84B
:10150000203DD5F8FC3D43F08073C5F8FC3D3C4BD5
:101510001A6842F001021A605B680B6000F0E0FAA2
:10152000C6F804913748C6F800B1C6F8F490C6F87A
:10153000F0A000F081FCD8F86C10334B334A41F432
:101540004051C8F86C101F60C3F80871C3F81871D7
:10155000C3F82871C3F83871936BDB0708D442F6DF
:1015600015632B4951651365936B43F00103936336
:10157000264A284C936843F00113936000F0EEF87C
:1015800000F012FC00F050FC00F0D8FA00F064F813
:101590002368132BFCD900F069FB2368B3F5967F11
:1015A000FBD300F05DF800F059F800F035FC00F0D6
:1015B00037FC30BFFDE700BF00800D4058AC040091
:1015C0007C1F006000000000C0E60020D8CB046053
:1015D0000000002060060120C0E6002000E400209A
:1015E000F90B000000E400E0A0E400E000C00A40C5
:1015F00031200000F80501203520000000002020E7
:10160000001000E00046C3230040084000400D40A9
:101610000000C056FC0501201B1018200C0D1113F2
:1016200000C00F40074B4FF42A01074A07485A648D
:101630001864074A99639546BFF34F8FBFF36F8FC6
:10164000FFF7F2FE00C00A40FFFFAFAA070020002C
:1016500000000320704700BF704700BF704700BF05
:1016600000BF704710B44FF0E023002110242B4836
:10167000C3F8941DC3F89C4D1124C3F8A00D28484D
:10168000C3F89C4D1224C3F8A00D2648C3F89C4D06
:10169000254AC3F8A00D254C42F015022448C3F892
:1016A0009C4DC3F8A00D234C2348C3F89C4DC3F8B0
:1016B000A00D224CC3F89C2D2148224AC3F8A04D0E
:1016C000C3F89C0DC3F8A02D02F5A0221E4C0C32CD
:1016D0001E48C3F89C4DC3F8A02D1D4AC3F89C0DAD
:1016E0001C4CC3F8A02D01221B48C3F89C4DC3F825
:1016F000A00DC3F8942DBFF34F8FBFF36F8FC3F8C6
:10170000501FBFF34F8FBFF36F8FD3F8142D5DF8C9
:10171000044B42F44032C3F8142D70473F000010D0
:1017200025000803090010006006012013002000B6
:1017300021000207140000202500081309000010F2
:101740001600202027000B1317000040180000602F
:101750002F000B07190000702F000B13F0B5B84BCA
:101760001822B84E0120B84F83B0C3F85C62B74965
:10177000C3F86072B64DC3F86462A6F53046B54C46
:10178000C3F86862C3F86C52C3F87052C3F874525D
:10179000C3F8785248F20C75DA661A675A679A6786
:1017A000DA67C3F88020C3F88420C3F88820C1F822
:1017B0002C03A94AC1F83003C1F83403C1F8380337
:1017C000C1F83C03C1F85003A169A44B0A40A448E6
:1017D000A4491343A44AA361D4F8843043F00C0312
:1017E000C4F884304FF0FF34036843F00203036011
:1017F00003682B404FF400551A439C4B0260446031
:101800008A689B4C13409B4A43F000538360C36833
:1018100023F07803C360036A134023430362036A1F
:101820001340954A2343954C43628262C262002270
:10183000D1F8B83023F03F0343F00103C0F8B830CB
:10184000D1F8BC308E4923F03F0343F00103C0F8C8
:10185000BC3040F20563026105660467C0F8803061
:10186000456644670224C0F88430036823F002030D
:1018700003608161834B8449C46143F8042B8B422C
:10188000FBD1774A136843F001031360136813F028
:101890000103FBD17A48022140F2F564906140F2E5
:1018A0009940D16140F26641C2F8004242F20144DF
:1018B000C2F810127549C2F82002C2F8301240F284
:1018C00035417348C2F83442C2F84012714CC2F834
:1018D000500242F201207049C2F854120121C2F8AC
:1018E0006042C2F864025E48C2F8A030C2F8A43078
:1018F000C2F8B0104369DA07FCD5012300244FF485
:10190000803257494361C0F8A040C0F8A420C0F815
:10191000B0304B69DB07FCD5012300244FF40030C5
:101920004F4A4B61C1F8A040C1F8A400C1F8B030E3
:101930005369DF07FCD50123002458484849536107
:10194000C2F8A040C2F8A400C2F8B0304B69DE076C
:10195000FCD5D1F8003145F60D5221209BB24861EB
:10196000934265D100244FF4802201233C48C1F802
:10197000A040C1F8A420C1F8B0304369DD07FCD510
:1019800001234FF400040021354A4361C0F8A04010
:10199000C0F8A410C0F8B0305369DC07FCD50123AF
:1019A0004FF400044FF480302D495361C2F8A04039
:1019B000C2F8A400C2F8B0304B69D807FCD50123A7
:1019C0004FF400044FF40030254A4B61C1F8A040A9
:1019D000C1F8A400C1F8B0305369D907FCD5012380
:1019E0004FF400042D481E495361C2F8A040C2F8CC
:1019F000A400C2F8B0304B69DA07FCD5D1F8003149
:101A000045F60D5221209BB24861934250D00825E3
:101A10004FF4000422490020224B234A0090157005
:101A20005A1A01232148224400F002FA03B0F0BD03
:101A30001E4B0022C3E90022C3E9022203B0F0BD1D
:101A400000801F40F9B00100F910010000841F4020
:101A5000F970010000C00F40FFFCFF1F000300A051
:101A600000402A4000802A401200FFFFFF37F700A5
:101A70004000008000FFF07CFF000F836300020045
:101A8000F05AF05A00422A4000432A409F0418307E
:101A9000EB06180A3806180A06320126040003006D
:101AA000000000700000007023060120C002012029
:101AB0004FF400044FF4802201230848C1F8A040ED
:101AC000C1F8A420C1F8B0304369DB07FCD501237D
:101AD00010254FF0807443619CE700BF00402A400E
:101AE000F0B4154A40274FF480314FF480564FF43C
:101AF00000554FF4404443F24200136913F0020FC3
:101B00000ED113F4005F0FD013F4805F0ED0002BC2
:101B1000F3DA13F4803F0BD15B060BD5F0BC7047B2
:101B2000946151619061E8E75561E6E75661E4E749
:101B30009161E2E75761E0E700800D403F4A0320F2
:101B40003F49F3EE095AD2F880304FF0000C9FED78
:101B50003D6A23F001039FED3C5A30B4C2F8803057
:101B6000C2F89000D1F8E010384DCBB2384C39486B
:101B70002B6007EE903A0B0DC1F30B21F8EEE77ADC
:101B800006EE903A07EE101A334BB8EEC77A216092
:101B9000F8EEE66A314937EEC66A37EEC55A76EE98
:101BA000C76A77EEE57A26EE266AC3ED006A25EE6F
:101BB000265AD2F8803067EEA64AC0ED007AC6EE0B
:101BC000275A274885EE276AC4EEA76A75EE875A1A
:101BD000FCEEE55A36EE076A15EE904ABCEEC66A90
:101BE00043EA045376EE877AC2F8803016EE103A54
:101BF000D2F89041FCEEE77A01EA0341214317EE67
:101C0000903AC2F89011C3F30B03D2F890110B4332
:101C10001449C2F89031D2F8803043F00203C2F880
:101C20008030114B80F840C0C1F840314FF0E023C4
:101C3000012230BCC3F80821704700BF00810D406D
:101C400000441F400000AA420000B442FC040120EE
:101C5000F804012000050120040501200000FF0F09
:101C600000E400E000E40020ED0D0000314B40F600
:101C7000617210B5C3F8202140F2044400F0E0F88E
:101C80002D4A2E49D2F880302D4843F00303C2F884
:101C900080302C4BC1F8604102681A4203D1D1F860
:101CA000A8319A071BD0254A4FF00041244B5963B5
:101CB000D2F8403143F00203C2F84031D2F840314B
:101CC0009B07FBD44FF400304FF0E0211C4B4FF04A
:101CD0000042C1F88C0219209A6300F095F8184A66
:101CE0004FF08040154C002190630A20164B116084
:101CF0004FF42072C4F8A801184600F089F84FF498
:101D0000800203464FF4810040F243111860C4F88A
:101D100058311A640D4B0E4AC4F84811C3F8042216
:101D20004FF0E0224FF400310123C2F80C11C4F847
:101D3000403110BD00800D4000C00F4000002E401B
:101D400000900D40001C1E000000002000E4002058
:101D5000D50F000008B50E4B1B6E9B0700D4FBBED1
:101D600072B60C4B00200C4AC3F8400103F16043EB
:101D70000A49A3F55F2311649D46BFF34F8F4FF4CB
:101D800000130748074ADB6902609B68984700BF59
:101D900000441F4000002E4000C00A400300200005
:101DA00000802020000012EB104BA020104AD96EBA
:101DB00041F4403110B4D96640F23764D96E41F431
:101DC0004071D96654649064936C1B06FCD4094A34
:101DD00040F23761A02351649364936C13F0800345
:101DE000FBD1054A13705DF8044B704700C00F40EB
:101DF00000400C4000800C4022060120F8B500BFD6
:101E0000F8BC08BC9E4670475FF800F0E50800008B
:101E10005FF800F0F17403005FF800F0CDA4030058
:101E20005FF800F0510A00005FF800F0C1230000E5
:101E30005FF800F0292500005FF800F05520000051
:101E40005FF800F045170000450000006502000043
:101E5000410500008DDC00001D46010069E701001E
:101E6000898C0200059602009DBF02005DC202003F
:101E70001603550053004200200053006500720015
:101E8000690061006C0000001803540065006500E3
:101E90006E00730079006400750069006E006F00C9
:101EA0000403090409026200030100C032080B00A8
:101EB00002020201000904000001020201000524DF
:101EC0000010010524010101042402060524060076
:101ED000010705820310001009040100020A000036
:101EE00000070503024000000705840240000009C6
:101EF00004020002FF6AFF0007058102400001079B
:101F0000050102400001000009026200030100C057
:101F100032080B0002020201000904000001020263
:101F2000010005240010010524010101042402061A
:101F300005240600010705820310000509040100BD
:101F4000020A0000000705030200020007058402E0
:101F50000002000904020002FF6AC70007058102AF
:101F60000002010705010200020100000A0600024A
:0C1F7000EF020140010000000000000032
:101F7C000000000000000000000000000000000055
:101F8C000000000000000000000000000000000045
:101F9C000548064B1B1AD90F01EBA301491002D0BF
:101FAC00034B03B118477047C0E60020C0E6002081
:101FBC000000000008B5054B1BB105490548AFF3FF
:101FCC000080BDE80840FFF7E3BF00BF0000000041
:101FDC009C04012000C005602DE9F843194D40F226
:101FEC00EE28194C194FDFF870902E6801F03EFF67
:101FFC002378D3B13B78DB0717D52B68D9F80020B1
:10200C009B1A0E2B11D90121114800F0D5F940F67D
:10201C00B83000F01FFC0F4B00224FF07E511A60BD
:10202C00D9605A609A60BDE8F8832B6822789B1BB4
:10203C002AB1B3F5FA6FE6D801F018FFD6E743459D
:10204C00FAD9E0E7FC0501202B0601202A06012025
:10205C00EC0501209C0201200C0601200000000070
:10206C00554BDFED567AD3ED016A93ED006A93ED93
:10207C00037A534A37EE667A10B52DED0A8B37EE9C
:10208C00E6CA93ED028A37EEC6AAC2ED007A38EEA4
:10209C00468AC2ED017AB7EECCCAB7EECAAAB7EE41
:1020AC00C88A2CEE0C0BB7EEC7BAAAEE0A0BB5EE2B
:1020BC00400BF1EE10FA5FD4B1EEC09B2BEE0B0B84
:1020CC00A8EE080BB5EE400BF1EE10FA4FD4B1EEC2
:1020DC00C07B29EE079B9FED307BB4EEC79BF1EEE6
:1020EC0010FA18DC5A219FED377A374C374884EDBB
:1020FC00007A00F095F994ED000A02213448B7EE0D
:10210C00C00A00F0F5FA41F28830BDEC0A8BBDE84C
:10211C00104000F09FBB2AEE080BACEE0B0B80EED0
:10212C00090B32F033F928EE4C8B9FED1D7B9FEDA4
:10213C001E6BAAEE0B8B20EE070B80EE067B88EE57
:10214C00096BB5EEC06B9FED1A6BF1EE10FA18D55A
:10215C0037EE067B1C4C1D48B7EEC77BFDEEC77AED
:10216C0084ED007A17EE901A00F05AF9C3E732F0BA
:10217C003BF9B0EE407BACE732F036F9B0EE409B69
:10218C009CE736EE477BB7EEC77BFDEEC77A17EEC2
:10219C00901AAAE7AFF30080BC89D897B2D29C3CC6
:1021AC000000000000806640182D4454FB210940BB
:1021BC0000000000008056409C020120000000003E
:1021CC00C00401200000B442F4050120EC050120FC
:1021DC0070D3002010B5074C204602F07FFB204640
:1021EC00054A064902F09AF90548BDE8104000F08E
:1021FC00BFB800BF5CFF002044D400209129000030
:10220C00EC050120FFF7E8BEFFF72ABF10B5044626
:10221C0000F0EAF9204610BD2DE9F0414A4E307825
:10222C00FF2802D0002100F069FB484D2B780B2BC6
:10223C0048D8474F01213C6801FA03F2224278D179
:10224C00FF2232700133DBB20B2B37D82B700020FE
:10225C004FF0010C03E0CBB201200C2B35D00CFA63
:10226C0003F2591C2242F6D000B12B7039493A4A7C
:10227C0031F81310136807EE901A0B44FBEECE7A6C
:10228C001360F5EEC07AF1EE10FA15D99FED337AA2
:10229C00F4EEC77AF1EE10FA0EDCF3EE086ABEEE3D
:1022AC00007AA7EEA67AFCEEC77A17EE903A102BBE
:1022BC0002D92B4A1268A2B9BDE8F081002213465C
:1022CC002A70C4E7224A1468BAE7234A25481168E1
:1022DC002B70814208D9224B1B680BB195211960D8
:1022EC0000231360BDE8F0811F4B5B1A07EE903A98
:1022FC00FAEECE7AF5EEC07AF1EE10FAF0D99FED47
:10230C00177AF4EEC77AF1EE10FAE9DCF3EE086A0C
:10231C00BEEE007AA7EEA67AFCEEC77A17EE903ADC
:10232C00102BDDD90E4909680029D9D0C1ED007AEE
:10233C00D6E70E4A12F80380404600F0DFFA2B78FD
:10234C003C6886F800807DE7F8E10020F7E100208A
:10235C0074E900205CE9002060FF0020ABAA2A4D44
:10236C0080D30020FFE1040000E204007CE900209F
:10237C0030B40F4D00230C2101222C680371224232
:10238C004FEA420C0BD0037901391FFA8CF203F19E
:10239C0001030371F3D1FF2330BC0371704705496E
:1023AC0014430B682C6023EA020330BC0B607047AB
:1023BC0078E9002074E9002038B5044600790B2830
:1023CC0000D938BDCDB20121284600F0C1FA2079E0
:1023DC000E4B0F4A0F491D5445F6C055012321F8E9
:1023EC001050834011680C4D0B434FF4085113608F
:1023FC004FF416422B6821806280002BE1D1EF2232
:10240C000649284600F08CF8207938BD7CE900207C
:10241C0074E900205CE9002080D30020A9020000B0
:10242C0003790B2B1ED8B1F5087F2DDA21EAE17167
:10243C00B0F800C04288B429A2EB0C02A8BFB421AA
:10244C00002A02FB01F10EDB5A31174A82FB010212
:10245C00C81700290A44C0EBE212944411DB134A5A
:10246C0022F813C070475A390F4A82FB0102C81771
:10247C0000290A44C0EBE2129444F0DB0CF1010C8D
:10248C00EDE70CF1FF3CEAE702884FEA011CB2EBE6
:10249C00011F04DC42886245A8BF624692B2034920
:1024AC0021F81320704700BFB7600BB65CE9002021
:1024BC00024A0349034802F031B800BF44D400205B
:1024CC009D02000080D3002010B5134C236813B17B
:1024DC00124AD168E1B9636813B1104AD16999B94C
:1024EC00A36813B10D4AD16A51B9E3683BB10B4AE9
:1024FC00D16B21B10121BDE81040D163184710BD4B
:10250C000121D1629847F0E70121D1619847E7E7B3
:10251C000121D1609847DEE7C0E600200041084069
:10252C000368844610B473B3002098600120D8600F
:10253C001A60234A23481A44234C121140F82210E3
:10254C000320224998609CF8043021488B540B7866
:10255C004A78C0F828429342887828BF1346CA7834
:10256C00834228BF0346934228BF1346194C4FF0B1
:10257C00E0224FF08061012084F87A305DF8044B42
:10258C00C2F80C1170471448144CC36E43F44053FA
:10259C00C3660120124B186012480346CCF80000A9
:1025AC0098680028C4D01033A342CCF80030F7D17F
:1025BC0000235DF8044B1846CCF80030704700BF80
:1025CC0000BFF7BFC0E60020590500009CD30020D7
:1025DC0000E4002000E400E000C00F40404108404F
:1025EC000040084000410840026822B3124B002111
:1025FC004FF0FF0C134410B51B11104C916044F8B4
:10260C0023100124D4600E4A02F803C0137892F808
:10261C0001C092F802E0634528BF634692F803C0FC
:10262C00084A734528BF7346634528BF634682F842
:10263C007A30016010BD704700BFF7BFC0E60020C4
:10264C009CD3002000E400E0084601F07BBB00BFF7
:10265C00012A70B508BF0A228AB091B34FF0210E3F
:10266C0001E05FFA86FE0EF1FF36B1FBF2F502FBDC
:10267C0015145FFA84FC092C0CF137040CF1300CA6
:10268C0098BF5FFA8CF40EF1280C88BFE4B291422B
:10269C00EC4429460CF8244CE3D24BB10EF1FF3E2E
:1026AC002D225FFA8EFE0EF128036B4403F8242CC6
:1026BC00036801A9CEF122025B68714498470AB005
:1026CC0070BD30224FF0210E8DF82520E5E700BFBC
:1026DC00054B022888BF034610B41C681846636873
:1026EC005DF8044B184700BF70D3002000000000B9
:1026FC00B4EE400B70B5F1EE10FA05462DED028BE1
:10270C0086B07CD6B0EEC07B9FED476BB4EE467BBB
:10271C00F1EE10FA6BDC9FED467BB4EEC70BF1EEDD
:10272C0010FA5ADC9FED447BB4EEC70BF1EE10FAB5
:10273C0053D4B5EEC00B0C46F1EE10FA5BD400236B
:10274C00B6EE007B002C5ED04FF0000C9FED3C6B86
:10275C000CF1010C27EE067B5FFA8CF2A242F7D348
:10276C0030EE070B0A222846FCEEC07BB8EE678BD6
:10277C0017EE901A30EE488BFFF76AFF0F2C4FF0D4
:10278C002E03B2EE046B064628BF0F248DF80830DA
:10279C000DF1090302AA611E53FA81F128EE060B12
:1027AC00FCEEC07BCDED017A9DF8043007EE903A3B
:1027BC003033B8EEE78B02F8013F914230EE488B94
:1027CC00ECD12B68013402A928465B68E2B2984729
:1027DC00304606B0BDEC028B70BD2B6803221A4943
:1027EC005B6806B0BDEC028BBDE87040184703680F
:1027FC0003221649F4E7B1EE400B0123A0E703686E
:10280C0003221349ECE730EE070B0A222846FCEEB4
:10281C00C07B17EE901A06B0BDEC028BBDE8704081
:10282C00FFF716BFAFF30080FFFFFFFFFFFFEF7F47
:10283C00000000E0FFFFEF41000000E0FFFFEFC1F0
:10284C009A9999999999B93FEC050020E8050020CF
:10285C00E405002000B970472DE9F84F01218146AD
:10286C00214C224D224E54E8003F2A68306844E83F
:10287C000013002BF7D11F494B684FF47A7BDFF81C
:10288C0078A01B1A01270BFB02F8DAF80020A3FB37
:10289C0002325A4594BF9044D84454E8003F2A6809
:1028AC00306844E80073002BF7D14B68DAF800C0AD
:1028BC001B1A0BFB02F2A3FB0C3CBCF57A7F94BFFA
:1028CC00624402F57A72A2EB0802B2F57A7F06D363
:1028DC00B9F1010908F57A78DFD1BDE8F88F01F07C
:1028EC00C5FA0449D9E700BF00060120FC05012008
:1028FC00F8050120001000E0E8050120362816D864
:10290C000201104B03EB00109B5810B4C2685C68BA
:10291C00144205D061B95DF8044BC3F888207047A8
:10292C00836851B1084A5DF8044B1A6070477047D0
:10293C005DF8044BC3F884207047044A5DF8044BDF
:10294C001A60704710C5002038F0010038300100C3
:10295C00362829D8164B0201012903EB00109A588E
:10296C0010B45368C4680ED004290CD023EA0403B5
:10297C0053608368A9B1022917D003290CBF0D4AF3
:10298C000D4A1A6007E0234301295360836808D07D
:10299C0040F638021A60436815225DF8044B1A6041
:1029AC00704738221A60F6E77047044A1A60F2E75B
:1029BC0010C50020383001003800010038F001004B
:1029CC0008B5FFF71FFCFFF71FFC01F04FFAFAE701
:1029DC00844641EA000313F003036DD1403A41D31E
:1029EC0051F8043B40F8043B51F8043B40F8043BDD
:1029FC0051F8043B40F8043B51F8043B40F8043BCD
:102A0C0051F8043B40F8043B51F8043B40F8043BBC
:102A1C0051F8043B40F8043B51F8043B40F8043BAC
:102A2C0051F8043B40F8043B51F8043B40F8043B9C
:102A3C0051F8043B40F8043B51F8043B40F8043B8C
:102A4C0051F8043B40F8043B51F8043B40F8043B7C
:102A5C0051F8043B40F8043B51F8043B40F8043B6C
:102A6C00403ABDD2303211D351F8043B40F8043B0C
:102A7C0051F8043B40F8043B51F8043B40F8043B4C
:102A8C0051F8043B40F8043B103AEDD20C3205D31C
:102A9C0051F8043B40F8043B043AF9D2043208D014
:102AAC00D2071CBF11F8013B00F8013B01D30B8886
:102ABC0003806046704700BF082A13D38B078DD064
:102ACC0010F003038AD0C3F10403D21ADB071CBF36
:102ADC0011F8013B00F8013B80D331F8023B20F8A0
:102AEC00023B7BE7043AD9D3013A11F8013B00F8D9
:102AFC00013BF9D20B7803704B7843708B78837061
:102B0C006046704701F1FF3C70B56646002400E05A
:102B1C000134B0FBF2F502FB1503092B03F1370E60
:102B2C0003F130035FFA8EFE98BF5FFA83FE90428A
:102B3C00284606F801EFEBD2631C0022C818CA54D1
:102B4C007CB162461CF8015F10F8016DA1EB0C031F
:102B5C0002328CF80060013B521A057023449A42F1
:102B6C00EFDB084670BD00BF72B6EFF305834F4C28
:102B7C00C4F88430EFF308824FF0E0234C4E4D4DF7
:102B8C00D3F8280DD3F82C1DC4E92201D3F8341D39
:102B9C00D3F8383DC4E924139369C4F89830D36949
:102BAC00C4F89C3000F0DCF884ED280A01F03AFC03
:102BBC000B214FF0FF32C4F8A4000B46C4F8801070
:102BCC003D49301D5A40202402F00103013C01FB19
:102BDC0003F383EA5202F7D1A84202D07368064687
:102BEC00EFE7324BC3F8A820BFF34F8F4FF0E02331
:102BFC002F49324AC3F8701FC3F8702FBFF34F8FA1
:102C0C00BFF36F8F2E4A02252E48D36E2E4943F404
:102C1C004053D3660560D3692C4823F07F0343F0FF
:102C2C004003D3610B6883423DD8264D00214FF001
:102C3C00E0234FF0FF3229600126C5F80811244922
:102C4C00C5F80011C5F80861C3F88021C3F88421C8
:102C5C00C3F88821C3F88C21C3F8902101E000F05F
:102C6C0071F9D5F80C31002BF9D00134C5F80C6191
:102C7C004F2CF4D9174B022017494FF00042C1F8E2
:102C8C0040015A63D5F80C313BB9144814490D4A2C
:102C9C000163D2F80C31002BFAD04FF0E023114A2B
:102CAC00C3F80C2DFEE701F08DF9BEE700FF2720DD
:102CBC0080FF2720A8FF27202083B8EDA0FF272026
:102CCC0000C00F40004008406CD30020803DCD0B6D
:102CDC00009F240000900D4000002E4000800F400B
:102CEC00F100AD0B0400FA050A490A6838B108B5C1
:102CFC0013180948834204D810460B6008BD1046CF
:102D0C00704739F095FB0C234FF0FF3203601046EF
:102D1C0008BD00BF20D400200000282000207047F0
:102D2C004FF0FF30704700BF4FF4005300204B6052
:102D3C00704700BF012070474FF0FF30704700BF55
:102D4C0030BFFDE70078B0FA80F04009704700BF53
:102D5C0001230370704700BF30BFFDE7FFF704BFCE
:102D6C00124AD2F880305B07FBD5D2F8803010487D
:102D7C00C3F30B230F4990ED007A07EE903A91EDD7
:102D8C00006AB8EE477A0C4AF8EEE77A0B4BD2EDB4
:102D9C00006A77EEC77A93ED007AB8EE477A67EE61
:102DAC00867A87EEA60A37EE400A704700810D40FE
:102DBC00F80401200005012004050120FC04012079
:102DCC00836BF0B41BB1536843F40043536072B689
:102DDC00446B3CB31A4B2260D3F8B0410C421DD16A
:102DEC00184E776804E07468E41BB4F5166F0BD2C8
:102DFC00D3F8404144F48044C3F84041D3F8B8516F
:102E0C00D3F840416404EED50D4007D10C4CC0E919
:102E1C000225D4F8B0310B43C4F8B031426362B62A
:102E2C00F0BC7047064DC0E90224D5F8B0310B4315
:102E3C00C5F8B0310263426362B6F0BC704700BFA4
:102E4C0000002E40001000E070B5056B9DB10646E9
:102E5C002A46002403E012680134012A0CD053687E
:102E6C0013F08003F7D032632CB12846B36B2D6876
:102E7C009847013CF9D170BDC6E90C33F4E700BFAB
:102E8C0030B4D9B91F4C204B0021204A01254FF0FA
:102E9C00011099601D60C4E9023180245C60C2F8A5
:102EAC00BC01D2F8B0311A482B43C2F8B0310160E2
:102EBC00D2F8B031002BFBD130BC70470904154B54
:102ECC00104C012541F080019860104A596000F5C2
:102EDC0080511D60D96000F50051A364196100F5A3
:102EEC00405100F58040596100219861E164D2F8AD
:102EFC00B03143F48033C2F8B031D2F8B031002B8A
:102F0C00FBD1C0E700000020E0E6002000002E40CE
:102F1C00B402012000E70020084901220B7802FAD4
:102F2C0000F023EA0000087030B9054AD2F84831A5
:102F3C0023F08003C2F84831704700BF26060120F9
:102F4C0000002E402DE9F04F974C83B0D4F844711B
:102F5C00FB07C4F8447153D5D4F8AC21002A4AD0ED
:102F6C00924EDFF860A2DFF87492DFF874B2DFF8EB
:102F7C007482C4F8AC21D6E90A20D4F8403143F469
:102F8C000053C4F84031D4F840319D04F5D5D4F841
:102F9C00403123F40053C4F840314FF00113C4F80E
:102FAC00B431D4F8B45115F00115FAD193B284466A
:102FBC00CAF80050B3F5086F00F0CF8100F2DB8047
:102FCC0040F202318B4200F0E78100F29A80822BB2
:102FDC0000F0CB81B3F5817F40F08A8010F0780F40
:102FEC0083B200F003824FF00113C4F8C031D4F85F
:102FFC00AC21002ABDD16C4AD2F8BC31002B42D195
:10300C007E0616D5684BD3F8AC21C3F8AC21D3F8A7
:10301C00BC21C3F8BC21D3F8B041002CFBD14FF03C
:10302C00FF32C3F8B421D3F8843100F02DFD604B8E
:10303C001C60FC0103D55F4B1B6803B19847B801BA
:10304C0003D55D4B1B6803B19847790708D5564BE0
:10305C00D3F8843113F4007347D0584B01221A7003
:10306C00514BD3F848311A060AD53B0608D5544AB9
:10307C0013782BB1013BDBB21370002B00F0728282
:10308C0003B0BDE8F08F4F49C2F8BC310868034269
:10309C0040F0D181464A14681C40B1D05FEA144814
:1030AC0010D0424E4FF0010998FAA8F5B5FA85F503
:1030BC0006EBC51009FA05F54030FFF7C5FE38EAF6
:1030CC000508F1D1A4B2002C9AD0384E4FF001086B
:1030DC0094FAA4F5B5FA85F506EBC51008FA05F5D2
:1030EC00FFF7B2FEAC43F3D18AE7344A1370B7E76B
:1030FC00802B7FF478AF344802210580FFF7C0FEA7
:10310C0075E7B3F5A06F00F00B81A3F5D063012B2D
:10311C003FF669AF2D4B5D68002D3FF464AF1FFA8D
:10312C008CFC4FEA124E04E01D690C33002D3FF469
:10313C005AAF1A887245F7D15A886245F4D14FEAD2
:10314C001E22032A00F0A5811A89000C824228BF96
:10315C000246BEF5007F40F0A181184B1C4918783F
:10316C001C4B0192002818BF19461B48FFF730FC76
:10317C00194D019AE1E142F221218B427CD033D9E5
:10318C0042F221318B4200F081804FF6C0018B421C
:10319C007FF429AF10F47F4F83B27FF424AF43F454
:1031AC006E4363F30F0CB5E700002E4000000020C7
:1031BC00B802012010060120140601202C06012063
:1031CC002D060120B4020120B804012070D000208B
:1031DC00A41E0060081F006000002020AC0201202B
:1031EC005DCFC6B8C0012E40B3F5106F66D042F269
:1031FC0021018B427FF4F7AE030C072B7FF4F3AE67
:10320C00B24BB349F560D960B249B360C3F80890CA
:10321C00C1E9002001221A60AF4A5A60AF4A1A6114
:10322C00D4F8B01141F00101C4F8B01102F580518D
:10323C0002F5005259619A61D4F8B031002BFBD1E0
:10324C00A74AF36493600123B264136048F28003CD
:10325C0053604FF00113C4F8BC31D4F8B03143F4CF
:10326C008033C4F8B0314FF48033CAF80030D4F84E
:10327C00B031002BFBD1BAE680B238B9994BC2F30E
:10328C0007421968984B1960984B1A70944B00229E
:10329C009A60F2640122B3641A6080225A604FF083
:1032AC000113C4F8BC31D4F8B03143F48033C4F802
:1032BC00B031D4F8B031002BFBD198E6C2F3074201
:1032CC008B4B1A708B4BC4F8C8318B4BC4F8CC3178
:1032DC008A4BC4F8D03100F0D9FB802229468848AB
:1032EC0036F0BEF8874B8022C6F8A0B0C6F8E030A6
:1032FC007B4BF5645A600122B3649D601A604FF0F9
:10330C000113C4F8BC31D4F8B03143F48033C4F8A1
:10331C00B031CAF80050D4F8B031002BFBD166E6BE
:10332C006F4B0121F564196080219D60B364596075
:10333C004FF00113C4F8BC31D4F8B03143F48033EE
:10334C00C4F8B031D4F8B031002BFBD1130C5B06B0
:10335C0043F08073C4F8543149E6654B01216A4847
:10336C001B780370FFF78CFD41E683B210F07800F8
:10337C007FF439AE03F07F0258F82210624A1080B5
:10338C00180600F19E80CB0701D501231370022192
:10339C005D48FFF775FD2AE610F0780F83B27FF4D5
:1033AC0022AE03F07F0213F0800F58F8223014BFC6
:1033BC0043F4803343F0010348F822300022484B99
:1033CC00F2649A600122B3641A6080225A604FF052
:1033DC000113C4F8BC31D4F8B03143F48033C4F8D1
:1033EC00B031D4F8B031002BFBD100E603F07F02F2
:1033FC0013F0800F58F8223014BF23F4803323F0DD
:10340C00010348F822300022354BF2649A60012205
:10341C00B3641A6080225A604FF00113C4F8BC31B7
:10342C00D4F8B03143F48033C4F8B031D4F8B031AF
:10343C00002BFBD1DBE50020086026490C8848688E
:10344C0042F221018C427FF425AE80B200287FF439
:10345C0021AE2E492E4C03C9A18086284FEA11417A
:10346C002060A1717FF416AE72B62A48017841F043
:10347C0008010170D2F848110D0605D480200143D3
:10348C00C2F84401C2F8481162B6234A50211170A7
:10349C0000E6000C2A78824228BF0246BEF5E06F97
:1034AC0044D11E4B1E4D18781E491F4B019200280B
:1034BC0018BF19462846FFF78BFA07236B70019A41
:1034CC003BE0C9033FF561AF61E700BF00E70020B7
:1034DC00AC120120A0E8002080000700AC220120E3
:1034EC00E0E60020FC0501200C0601202A06012044
:1034FC002B0601200200CC00C80002000200C8000C
:10350C00800000201993D574B8040120AC0201206E
:10351C0004060120260601202D0601202C06012080
:10352C0000002020081F0060A41E00602946104DDA
:10353C0001922846FFF74CFA019A25F01F03154417
:10354C00BFF34F8F4FF0E021C1F8703F20339D4205
:10355C00FAD8BFF34F8FBFF36F8F05481146FFF7B3
:10356C008FFC44E50320FFF7D7FC45F0E1FE00BFDC
:10357C00000020202DE9F0471F46831E022B01D9A5
:10358C00BDE8F087DFF84C9015460C463C2209EB61
:10359C00C01806464FEAC01A002108F104002404A2
:1035AC0035F05EFFB5FA85F20123520944EA427404
:1035BC0049F80A40C8F83870C8F80830002FDFD036
:1035CC00034AB34011680B431360BDE8F08700BF9A
:1035DC00B8020120000000202DE9F0470D46811EA5
:1035EC00022901D9BDE8F087C701DFF84C9092465B
:1035FC00044640373C2200211E4609EB07082D04E7
:10360C0008F1040035F02CFFBAFA8AF2520945EAA7
:10361C00427249F807200122C8F83860C8F808201F
:10362C00002EDFD0034B10341968A2400A431A60F5
:10363C00BDE8F087B8020120000000201204816070
:10364C00C36101F5405342F0800210B40124426082
:10365C0001F50052046001F5805401F58041C4600D
:10366C0081615DF8044BC0E904237047831E0A4650
:10367C00022B00D97047064B00F110014FF0010CE2
:10368C0003EBC0100CFA01F14030FFF799BB00BFFF
:10369C0000000020831E0A46022B00D9704701212E
:1036AC00024B814003EBC010FFF78ABB00000020E7
:1036BC0040687047124A134BD2F8200220F07F402A
:1036CC00984210B584B002D200EB800040000E4C42
:1036DC0001A90A22FFF716FA01A90023204611F8C6
:1036EC00012B01333AB10A2B20F8022FF7D1162304
:1036FC00237004B010BD5B00DBB2237004B010BDAE
:10370C0000441F4080969800E0E1002000F0D2BAFF
:10371C0000F0A2BA00F006BB00F0C0BA00F05CBB2F
:10372C0000F032BB0846114600F022BBF8B5144C31
:10373C004FF0E025134E4FF4003204EB4024124FAF
:10374C0006EB40160346C5F88C2121463A883046D4
:10375C00FFF774FF3B882344BFF34F8FC5F85C4FD2
:10376C002034A342FAD8BFF34F8FBFF36F8F0320DF
:10377C003146FFF78FFF4FF40033C5F80C31F8BD1D
:10378C008000202020E7002018060120244B2DE982
:10379C00F0411C884368C569C3F30E43E41A002C3E
:1037AC0024DD204920480A780078D3B21F4E82428B
:1037BC001F4807D010F8038036F81870C7F5007250
:1037CC00944218D90133002226F81540082B194EC3
:1037DC0088BF134626F8152098BFDAB2C554164B8D
:1037EC000A701A6814441C60BDE8F0812846BDE8D4
:1037FC00F041FFF79BBF07EB4820104922462744B6
:10380C00084401EB4521FFF7E3F80B4A284626F85C
:10381C00187013682344BDE8F0411360FFF786BFAE
:10382C00180601202406012025060120CC040120C5
:10383C00EC040120DC040120C804012080002020BD
:10384C001D4B1A78002A36D102F0FF031B4A12785E
:10385C008AB32DE9F0411A4D2A8852B3194EC2F59C
:10386C000068194F3278194C07EB421704EBC2244D
:10387C00424638462146FFF7E1FE04EB0802BFF34F
:10388C004F8F4FF0E023C3F8704F2034A242FAD888
:10389C00BFF34F8FBFF36F8F04203946FFF7E6FE5F
:1038AC0033780133DBB2032B88BF00233370002342
:1038BC002B80BDE8F0817047290601202B060120E2
:1038CC001A0601202806012020E800208010202064
:1038DC002DE9F04F85B0CDE90110002900F0BF8033
:1038EC000023604CDFF89881DFF898A15E4F0093BD
:1038FC0001235E4A23705E4B1978B8F8003002EB56
:10390C004119002B40F0A7801E461D469B46484699
:10391C00FFF7CEFE10F0800000F08C80BFF34F8FCD
:10392C009AF8003084F800B005B93E68002B7DD1C0
:10393C003B689B1B782B00F287804E4B1B78002B2F
:10394C0074D000F093FA0122B8F8003015462270BA
:10395C00002BDCD0464AC3F5006011781A4600EB08
:10396C00C120454DC9022844019D954217D20393AD
:10397C00DDE901512A46FFF72BF8039B4FF040423B
:10398C005B1BA8F800303D4BC3F88420BFF34F8F6E
:10399C00009800232844237005B0BDE8F08F364B07
:1039AC00CD180299FFF714F800234FF40062294652
:1039BC004846FFF743FEBFF34F8F05F1200205F594
:1039CC000063934234BF012340234FF0E02205EB08
:1039DC004313C2F8705F2035AB42FAD1BFF34F8F5F
:1039EC00BFF36F8F04204946FFF740FE204A13783F
:1039FC000133DBB2032B84BF00231D4A1370B8F8CC
:103A0C000030019AD11A009A1A4401910092029A3C
:103A1C001A4400230292194AA8F80030C2F88430E4
:103A2C00BFF34F8F237000297FF462AF009805B06D
:103A3C00BDE8F08F4FF400620D4B8AF80000197846
:103A4C001346A8F800208AE7012300988AF8003072
:103A5C0005B0BDE8F08F1A46C3F500607FE701980A
:103A6C00E5E700BF29060120FC05012020E8002025
:103A7C00280601202B0601208010202000002E405B
:103A8C001A06012027060120704700BF2A4B00218F
:103A9C0080222A4870B51B780024294D8B42294E70
:103AAC000CBF40234FF400732B80338035F0D8FCCF
:103ABC00254A2146254B14704FF4807224481C80F3
:103ACC0035F0CEFC234A1021234B0220C2E90044DE
:103ADC00C2E90244214AC3E900441470204AC3E9F4
:103AEC000244204B1C70234614602246FFF774FDE1
:103AFC002246318803201C4BFFF73CFD2346012254
:103B0C0029880420FFF768FD20460134FFF70EFEDC
:103B1C00082CF9D1154B4A2215480021154C04608C
:103B2C00C3F88410C3F88020D3F8482142F0807287
:103B3C00C3F8482170BD00BF2C06012020E80020EE
:103B4C001C06012018060120280601201A06012057
:103B5C0020E70020CC040120DC04012024060120F5
:103B6C00C8040120250601201D18000000002E406D
:103B7C0010060120D11800002DE9F04F4FF0E02382
:103B8C004FF40032DFF8C8A083B0C3F88C218B4609
:103B9C009AF8004000294FD08046E4B20027DFF8A5
:103BAC00B490264BABEB070225491B78A34204F1DA
:103BBC0001043FD0092C234B404628BF00241E5D36
:103BCC0039F816C00CEB462319441F4B33F816502A
:103BDC00A5EB0C05AA421CD20CEB462C18491B4C2D
:103BEC0061440192FEF7F4FE216839F816505846EC
:103BFC00019AA1EB0B012A44394429F816202160C3
:103C0C004FF0E0234FF40032C3F80C2103B0BDE8B1
:103C1C00F08F2A462F44FEF7DBFE0C49E3B2304608
:103C2C000A68A844521B0A608AF80030FFF77EFD30
:103C3C00BB45B6D83846E3E70846E1E72406012041
:103C4C0080002020EC040120CC040120C8040120B9
:103C5C0025060120DC0401200B4B0C4A1278197844
:103C6C00D3B28A420DD0013309480A4A092B0A49BA
:103C7C0028BF0023C35C31F8131002EB4323585CBC
:103C8C0070474FF0FF3070472406012025060120B5
:103C9C00EC04012080002020DC040120044B10B532
:103CAC001C680CB1204610BD00F0E0F8204610BD99
:103CBC00C80401202DE9F84F144E154D33782A789D
:103CCC00934221D0DCB2DFF85090DFF850B0DFF82F
:103CDC005080104F0134082C5FFA84FA01D900246B
:103CEC00A24619F80400DBF8003038F8102037F839
:103CFC001010521A9B1ACBF80030FFF717FD86F8FC
:103D0C0000A02B78A342E5D1BDE8F88F2506012051
:103D1C0024060120DC040120EC040120C80401204D
:103D2C00CC04012000B583B001210DF10700FFF791
:103D3C0023FF20B19DF8070003B05DF804FB4FF0A2
:103D4C00FF30F9E7094B00B583B01B788DF80700FD
:103D5C003BB101210DF10700FFF7BAFD03B05DF88F
:103D6C0004FB03F0FF0003B05DF804FB2B060120FD
:103D7C00044B1B7803F0FF020BB1FFF7A9BD1046F3
:103D8C00704700BF2B0601202DE9F0410024DFF81D
:103D9C00448001230D4D27460D4E88F800303378B2
:103DAC0028462035A34204F1010405D0FFF780FC1E
:103DBC00030658BF07F50067042CF0D1BFF34F8FF3
:103DCC000023384688F80030BDE8F08120E8002058
:103DDC0028060120290601202DE9F8431D4B1B78EC
:103DEC0013B11D4D2A880AB9BDE8F8831B4EC2F5E4
:103DFC0000691B4933784A461A4C01EB43181A4F99
:103E0C0004EBC324012340463B7021460023FFF7FB
:103E1C0015FC04EB0902BFF34F8F4FF0E023C3F8FE
:103E2C00704F2034A242FAD8BFF34F8FBFF36F8F7D
:103E3C0004204146FFF71AFC33780133DBB2032B25
:103E4C0088BF0023337000232B80BFF34F8F3B7050
:103E5C00BDE8F8832B0601201A0601202806012054
:103E6C0020E8002080102020290601202DE9F843AD
:103E7C00324E337863B1324F3A784AB90122D907BE
:103E8C003A7044D49A0726D400225B073A7001D4C6
:103E9C00BDE8F8832B4B1A68002AF9D0EFF30582A2
:103EAC00002AF5D1EFF3108572B6186800283BD0C4
:103EBC00254C2178002937D10122227042691A60E1
:103ECC00002A38D0916105B962B600258368457720
:103EDC0098472570DCE7DFF87C8098F80020002AF2
:103EEC00D2D00025DFF870902B4659F823400135CD
:103EFC00236820461B69984710B163699B689847F3
:103F0C0098F80020EBB29A42EFD83378BCE7FFF771
:103F1C00C5FE68B90D4B1B780BB93378B2E7337813
:103F2C0003F0FE033370ADE7002DB1D162B6AFE7FD
:103F3C0000F08AFAEEE7064B1A60C4E7F9E10020BC
:103F4C002006012020F800201E060120781F0060AA
:103F5C002CF800201F06012030F8002070B5EFF37C
:103F6C00108272B60C4C206880B10C4E002543694F
:103F7C00236073B19D6102B962B683684577984737
:103F8C00EFF3108272B620680028F0D102B962B645
:103F9C0070BD3360EFE700BF28F8002024F8002044
:103FAC00FFF7DCBF0449054A4968054B19601368E3
:103FBC0001331360704700BF001000E0FC050120C6
:103FCC00F8050120A249A34B88422DE9F047A24CE9
:103FDC005E699A69D4F80C801BD9A04B984240F2C8
:103FEC000281C31A9E491B0AA1FB031340F22761ED
:103FFC00DB0903EB830303EB830303F2E2438B4202
:10400C0028BF0B46A3F54877964BA3FB0737FF0851
:10401C0004E0954FB8428CBF0E2706278D4908F057
:10402C001F09D1F88030B94543F0C003C1F8803086
:10403C000CD228F01F08A1F5F82148EA0708C1F8AE
:10404C000C800B68002BFCDA08F01F0916F00073CB
:10405C0024D186490C698649A14300F0EA8082F498
:10406C00805134464FF4805514F0605F04D026F034
:10407C0060561E43774B5E6111F4405F07D022F40B
:10408C00405274492A438A618B6C1A07FCD446F05F
:10409C000076704A5661936C9B06FCD4754CA0421A
:1040AC0000F2CE804FF0010C0146634603FB011277
:1040BC0003F1010E0CF10105A24218D8BEF1080F54
:1040CC004FF0010340F08D80BCF1040F00F29180A1
:1040DC000A18A24200F2A48005FB00F1AC4603F1E1
:1040EC00010E03FB01120CF10105A242E6D90CF101
:1040FC00FF318C0286EA81215F4810445F4A90426E
:10410C007FD9DFF8A4A16C225D48584DB0FBFEF0BE
:10411C00D5F800E0B0FBFCF0DFF890C10EEA0C0C17
:10412C00D44509D042F400524FF4805CC5F800C06D
:10413C002A602A68002AFCDA464A156905F0070548
:10414C009D4203D01361936CDD03FCD411F4E05F4A
:10415C0009D026F4E05604F4E0543E4A2643566156
:10416C00936C9907FCD44749474A014491423CD887
:10417C00464BC909A3FB0131090B4B1E1B0286EAF6
:10418C00030212F4407F06D026F4407603F4407309
:10419C00304A334353612F4A536923F00073536100
:1041AC00936C9B06FCD43A4B4F45A3FB00234FF07A
:1041BC00FF324FEA9343B0FBF1F1B2FBF3F3354A14
:1041CC001060354A1160354A136008D228F01F0878
:1041DC00214A48EA0707D7601368002BFCDABDE8D0
:1041EC00F087734662E7122718E74FF440730421F7
:1041FC00C5E70CF1FF31204807238C02104486EAF6
:10420C008121274ADFF8A8A0A2FB0020020D254837
:10421C00362A38BF362202FB00F042EA0A0A74E75B
:10422C004FEA8C24002386EA8C214FF0010EAC4619
:10423C0062E71D4686F0C05411464FF0C05313E799
:10424C0000244FF0010C024631462346E64653E764
:10425C0000A4781F00C00F40000008400046C32394
:10426C0023B24C001F85EB5100366E0100800D40CF
:10427C0040300080FFB19F26808D5B00FF7EF64DA5
:10428C0000643F4D7FD1F0087F17B42C9F10E500E0
:10429C0083DE1B436CD3002068D30020E80501208B
:1042AC00819F5E16001BB7006C2000807F30018060
:1042BC000020008000230F2248F2B82C194610B5BC
:1042CC004FF470444FF4806EA0F88C414FF460446E
:1042DC00A0F88E210A46A0F89031B0F888319BB234
:1042EC0043F0F003A0F8883101EB4103013100EBFE
:1042FC00431304299C80A3F806E05A841A865A803A
:10430C005A81A3F80EC05A82DA825A83DA83EBD12F
:10431C00B0F888319BB243F00F03A0F88831B0F8A5
:10432C0088319BB243F47063A0F8883110BD00BF94
:10433C00374B384A996F384841F47F0170B599670B
:10434C0041F20106D3F8801045F6C05543F226041D
:10435C000A43C3F88020FFF7ADFF00F58040FFF75C
:10436C00A9FF00F58040FFF7A5FF00F58040FFF79F
:10437C00A1FF0022A0F503104FF00F0E114600EB29
:10438C0042134FEA421C01329981042A5981A3F845
:10439C000EE09E82DD8020F80C1019829C81EED1FB
:1043AC0000221E484FF00F0E41F20106114645F651
:1043BC00C05543F2260400EB42134FEA421C013273
:1043CC009981042A5981A3F80EE09E82DD8020F8A1
:1043DC000C1019829C81EED1002211480F2641F25B
:1043EC000105114645F6C05443F2260E00EB42136C
:1043FC004FEA421C01329981042A5981DE819D8247
:10440C00DC8020F80C101982A3F80CE0EED170BD02
:10441C0000C00F40000003FC00C03D4000001E40E7
:10442C0000401E40074A506A936A19468446506AF7
:10443C00936A9942F9D18445F7D1DB0B43EA4040AA
:10444C00704700BF00400D40704700BF08B5D0E971
:10445C0000325BB1BAB10F4BA3FB0213DB0803EBC9
:10446C004303B2EB83030AD1012008BD094BA3FB24
:10447C000213DB0803EB4303B2EB830301D0D21A24
:10448C004260F02AF0D837F0D3FF1C2203460020FC
:10449C001A6008BDABAAAAAA70B5044638B319B104
:1044AC00B2FA82F67609A2B9206800B36268F2B15A
:1044BC00184B194902FB03F3B1EBB30F17D3A368E5
:1044CC00E3B90022012322606260A260E260184618
:1044DC0070BD1D46049BC0E90012C360FFF7B6FF18
:1044EC0003460028F3D06DB90123184670BD37F090
:1044FC009FFF162200230260184670BD002134F085
:10450C00AFFFDEE7626831462068A56034F0A8FF93
:10451C000123DCE7ABAAAAAA555555150346084654
:10452C00194632F0B5BF00BF2DE9F04FD04FD14D39
:10453C003968DFF89093D04B8E68DFF84C83DFF846
:10454C0088B3002483B00122C5E90094C5E9024474
:10455C00C5E90444AC6105F11C001A7001F094F833
:10456C003B682E624FF0FF3A5B68C8F80090C8E9D0
:10457C000144C8E90344C8E90544C5F824A008F17E
:10458C001C00C5F800B0019301F07EF8019BBB4EF6
:10459C00C8F820303B68C6F80090C6E90144DB68D7
:1045AC00C8F824A0C6E90344C6E9054406F11C007A
:1045BC00C8F800B0DFF8FC92019301F065F8019B9C
:1045CC00DFF80883C6F800B0C6E9083AA9F104067A
:1045DC00484608F1140A12F045FBC6E91F44C6E927
:1045EC00214429467467A6F8784049F8048C48465B
:1045FC00C6F804A012F0D0FAA14C204612F032FBFF
:10460C00A04B44F8083C143323600023C4E91E3348
:10461C00C4E920332367A4F8743044F8043C2046E2
:10462C009949083C12F0B8FA984DA5F104092846AE
:10463C0012F018FB0023C9E91F33C9E921338F4954
:10464C0045F8048C2846C9F804A0C9F87430A9F8B8
:10465C00783012F0A1FADFF868B2ABF104055846D5
:10466C0012F000FB0023C5E91F33C5E92133834950
:10467C004BF8048CC5F804A058466B67A5F8783045
:10468C0012F08AFAD9F81030814DDFF844B2A667DF
:10469C0043F40053C9F810303B68C9F87460002427
:1046AC009E68AC61C5E900B4C5E90244C5E904449F
:1046BC0005F11C0000F0E8FFDFF8E8813B682E6292
:1046CC004FF0FF39DFF80CA25B68C5F800A0C5F805
:1046DC002490C8F800B0C8E90144C8E90344C8E90B
:1046EC00054408F11C00019300F0CEFF019B694EBC
:1046FC00C8F820303B68C6F800B0674FD3F80CB050
:10470C00C8F82490C8F800A0C6E90144C6E90344DF
:10471C00C6E9054406F11C0000F0B6FFDFF8B881CD
:10472C00C6F800A0C6E908B9384612F09BFA29462B
:10473C0008F114093D1FC5E91D44C5E92044C5E92C
:10474C00224447F8048C384685F87C40C5F8049020
:10475C0012F072FA514C204612F084FA504B44F885
:10476C00083CA4F108061433B3600023C6E91E33D9
:10477C00C6E92133C6E923334A4986F880302046FE
:10478C00736012F059FA484F3C1F384612F06AFA1F
:10479C000023C4E91D33C4E92033C4E922333D4965
:1047AC0047F8048C3846C4F8049084F87C3012F036
:1047BC0043FADFF808A1AAF10407504612F052FAA6
:1047CC000023C7E91D33C7E92033C7E92233314938
:1047DC004AF8048CC7F80490504687F87C3012F0E5
:1047EC002BFA324922690B68B56742F40052013347
:1047FC00226165670B6003B0BDE8F08F2C4B7360D2
:10480C002C4812F06BFA26F0C9FE2B4B7B602B4820
:10481C0012F064FA26F0C2FE274B6360224812F0B5
:10482C005DFA26F0BBFE244BB3601C4812F056FA1E
:10483C0026F0B4FE204B6B60174812F04FFA26F0AE
:10484C00ADFE1B4B6B601E4812F048FA26F0A6FE1C
:10485C00174BC9F804300D4812F040FA26F09EFEB2
:10486C00134BA360064812F039FA26F097FE00BFEE
:10487C00D0D90020A0F80020F6E1002078F8002024
:10488C00ECFA00201C38002050F8002078FB0020A7
:10489C0018F90020F0F80020D0FE002020FD0020A8
:1048AC00D4390020C8F80020B0FD0020B0FA002058
:1048BC007440002090FC00208440002040FE00202A
:1048CC0004FC0020343A0020B8300020443800208A
:1048DC00743A0020F8300020FC390020074A136895
:1048EC00591C116003B1704700B583B00190FFF7FC
:1048FC001BFE019803B05DF804FB00BFB0FA00206A
:10490C00114A1368591E022B10B50446116001D0D0
:10491C00204610BD0D481BF0D9FF0D481BF0D6FFEB
:10492C000C481BF0D3FF0C481CF00CF80B481CF087
:10493C0009F80B481CF006F8204610BD26F0B6FF0F
:10494C0026F0F2FFE4E700BFB0FA00208CFC002058
:10495C0074FB002000FC0020CCFE0020ACFD0020ED
:10496C003CFE0020704700BF10B5044626F00CFD3D
:10497C00204610BD044A0B6812680360934202D0B3
:10498C001A6801321A60704730FA002001607047D3
:10499C0010B5054C206800B110BD024603492046F5
:1049AC0028F05AF9206810BD38FA00200C0F0020AE
:1049BC00004870470C0F002070B505464068E8B100
:1049CC00AB68CBB1304E002403E0AB680134A3429A
:1049DC0011D950F82420002AF8D05368591E012B05
:1049EC005160F2D113685B68B342104637D126F0A0
:1049FC00CBFC6868E9E708B126F0CAFCE868E8B1C6
:104A0C00AB68CBB1204E002403E0AB680134A34269
:104A1C0011D950F82420002AF8D05368591E012BC4
:104A2C005160F2D113685B68B342104619D126F07D
:104A3C00ABFCE868E9E708B126F0AAFC2B6963B186
:104A4C000024185910B126F0A3FC2B690434182C3F
:104A5C00F7D113B1184626F09BFC284670BD984739
:104A6C00C7E79847E5E726F021FF26F05DFFC0E792
:104A7C0026F01CFF26F058FFDBE7013102D126F0AF
:104A8C00A3FEFAE726F08AFDF929000038B50A4B97
:104A9C0005681B689D42044604D02B685A1E012BE6
:104AAC002A6001D0204638BD2846FFF785FF2846EE
:104ABC0026F06AFC204638BD30FA00200F4B1A68ED
:104ACC000B68934270B50E46044602D0186801304C
:104ADC0018602568AA4204D02A68501E012A286052
:104AEC0002D02360204670BD2846FFF765FF28469C
:104AFC0026F04AFC33682360204670BD30FA002053
:104B0C00002A00F0E5802DE9F04F0C6883B00546D3
:104B1C00164624B9A94B1C6801341C600C60AB68A8
:104B2C00671E013BBB425CD204F103086FF060438B
:104B3C00984534BF4FEA880A4FF0FF3A5046D5F8F3
:104B4C0004B027F061FB8146A86868B16B6803EB81
:104B5C00800CA9F10402043BACF1040C53F8041FC3
:104B6C0042F8041F9C45F9D1804507D9A8EB0002F7
:104B7C00920009EB8000002134F072FC5046D5F80D
:104B8C000CA027F041FBD5F808C00346BCF1000F80
:104B9C000CD0EA6802EB8C0E011F043AAEF1040E45
:104BAC0052F8040F41F8040F7245F9D1E04509D9C8
:104BBC00A8EB0C0203EB8C0092000021019334F063
:104BCC004FFC019BEB60C5E90198BBF1000F02D0D3
:104BDC00584626F0DDFBBAF1000F02D0504626F005
:104BEC00D7FBD5F80480736858F827C0013373607D
:104BFC00BCF1000F43D0724A1168002938D06F48BD
:104C0C000EE0D2F804E0DEF8003023B9036801337B
:104C1C000360CEF800309C4269D052F8081F39B3BB
:104C2C000B681BB90368013303600B609C42E8D12D
:104C3C0051680B6823B9614A1368013313600B6028
:104C4C005C1E58F824309BB130460DF0DBF98146E0
:104C5C0058F82400D9F804300133C9F804304368FB
:104C6C005A1E012B426068D048F8249058F827C08F
:104C7C00DCF804305A1E012BCCF804202DD0AA6885
:104C8C0048F827600AB30024EB68DFF83881274620
:104C9C0004E0AA680F600134A24216D953F824002C
:104CAC00A60003EB84010028F5D0426802F1FF3C1A
:104CBC00012AC0F804C0ECD103685B68434508D1F5
:104CCC0026F062FBEB689919E3E703B0BDE8F08FBF
:104CDC0070479847EB689919DBE7DCF80030394AE4
:104CEC005B689342604626D126F04EFBC7E70B6803
:104CFC0023B9324A1368013313600B605C1E58F8F9
:104D0C002430002BB4D0304604F0B8FE814658F85D
:104D1C002400D9F804300133C9F8043043685A1E12
:104D2C00012B4260A0D10368264A5B6893420BD1E9
:104D3C0026F02AFB98E79847A1E70368214A5B68AD
:104D4C009342F5D098478FE798478DE726F0AEFD54
:104D5C0026F0EAFDBEE726F0A9FD26F0E5FD8EE77C
:104D6C0026F0A4FD484626F013FB27F0EFF926F0B9
:104D7C009DFD26F0D9FD77E726F098FD26F0D4FDB1
:104D8C0072E7013115D126F01FFD013105D126F056
:104D9C001BFD013103D126F017FD26F0FFFB26F099
:104DAC00FDFB26F0C1FD26F0F9FB013103D126F005
:104DBC000BFD26F0F3FB26F0F1FB00BF34FA0020CC
:104DCC00500E0020F92900002DE9F041374C2368E2
:104DDC00BFF35B8FDB0707460E4615464AD5344BAF
:104DEC001C68002C3AD033489C460BE023B9016870
:104DFC00013101600B461160013B9D4243D05CF8D0
:104E0C00084F5CB3236823B9026801320260134671
:104E1C002260013BDCF804209D421368E6D1002B94
:104E2C003BD0013BFA6852F8251051B1A6B133685A
:104E3C00214A5B689342304635D1BDE8F04126F0FB
:104E4C00A3BA7168481C7060581C42F8256003D0E6
:104E5C000231716042F82360BDE8F081FB6853F8C1
:104E6C002520002AE2D172680132726043F8256075
:104E7C00BDE8F0812046FDF765FF0028AFD0204645
:104E8C00FDF766FFABE7226822B90A4B1A680132BC
:104E9C001A6022602B46551EC4E706490B68013385
:104EAC000B601360BDE7BDE8F04118474CE90020EA
:104EBC00500E002034FA0020F929000003682BB9A9
:104ECC0003490A6801320A6013460260581E704793
:104EDC0034FA00202DE9F04FC54C0160302389B025
:104EEC0006468360C0220021204634F0B9FAC14B3B
:104EFC00746000211846C02234F0B2FABE4DBF4A8D
:104F0C000024C6E90302C2E90054C2E90244C2E922
:104F1C000444FFF74DFD02882A80B948012322463C
:104F2C00214605F08FFFB64AB6493046FFF7E8FD3B
:104F3C00B548012127F030FFB34AB4493046FFF79A
:104F4C00DFFDB34CB348B44A846001230021C4E9AB
:104F5C0000234360B14B2174C4E90211C4E905116B
:104F6C00C4E90711A18484F86410036001F07EF891
:104F7C00A84AAB493046FFF7C3FDAA4AAA4B1360B7
:104F8C00012151603046A949FFF7BAFDA84AA94B47
:104F9C001360012151603046A749FFF7B1FDA74CC2
:104FAC00A74B0122C4E90032FFF7F2FCA060A5492F
:104FBC0022463046FFF7A4FDDFF840A3A24AA348DF
:104FCC000123CAE90023C0E9013A0022A04BAAF848
:104FDC001020CAE90222CAE90522CAE90722CAE955
:104FEC000922CAE90B228AF81220CAF834208AF85E
:104FFC0043200360114600F0CDFB944A954930469E
:10500C00FFF77EFDDFF8F89293480123C0E90139E0
:10501C00C9F80430914BC9F800300022904BA9F824
:10502C001020C9E90222C9E90522C9E90722C9E908
:10503C000922C9E90B2289F81220C9F8342089F811
:10504C0043200360114600F059FB834A85493046E2
:10505C00FFF756FD844A854B136001238449536046
:10506C003046FFF74DFD834A834B13600123834980
:10507C0053603046FFF744FD814D8249296000237F
:10508C000122C5E90123C5E90333C5E90533C5E9A7
:10509C000733C5E90933C5E90B33C5E90D33C5E958
:1050AC000F33C5E91133C5E91333C5E91533C5E928
:1050BC001733C5E91933C5E91B33C5E91D33EB6754
:1050CC007148C5E920332946C5E92233C5E92433A3
:1050DC00C5E92633C5E92833C5E92A33C5E92C339C
:1050EC00C5E92E33C5F8C03085F8C43012F0DEFBAC
:1050FC00654A66493046FFF703FD654A654B136008
:10510C000123654953603046FFF7FAFC634A644B50
:10511C0013600123634953603046FFF7F1FC62488A
:10512C0001210AF057FD604A60493046FFF7E8FC60
:10513C005F48012105F056FE5D4A5E493046FFF797
:10514C00DFFC5D48012127F03FFE5B4A5B4930469E
:10515C00FFF7D6FCDFF8ACB159480123CBF804308B
:10516C004360584BCBF80030574BC0F808B00021C7
:10517C000360CBE90211CBE90511CBE90711CBE9AF
:10518C0009118BF810108BF8241100F0FBFF4C4A1E
:10519C004E493046FFF7B4FC4D4A4E4B1360012389
:1051AC004D4953603046FFF7ABFC4C4A4C4B1360F7
:1051BC0001234C4953603046FFF7A2FC4A4C4B4B41
:1051CC00236001236360FFF7E3FBA060484922469C
:1051DC003046FFF795FCDFF8308146480123C8F8CC
:1051EC0004304360444BC8F8003000228EE000BF0E
:1051FC0040F7002050F6002028EF002038F6002061
:10520C0034EF002028FA002010F7002090FA00203C
:10521C00A0EA0020A8E90020B43A0020F0360020D3
:10522C0060FA002000F800206C3E0020A0FA00205C
:10523C0010F80020E43E0020A8FA002028F70020F7
:10524C008036002050FA0020F43A002050EA00206A
:10525C00B035002040FA00205CEA0020043B00201E
:10526C00E435002044FA0020F0E9002090370020BB
:10527C0070FA002000EA0020C037002078FA0020E5
:10528C0030EC0020D43A002010EA002070F9002005
:10529C00C0E900203837002068FA0020D0E900204F
:1052AC0038400020CCFA002088E9002058FA002071
:1052BC0054F100202CFA00201CF7002094FA002056
:1052CC00B4E90020C43A00201437002064FA00200E
:1052DC0008F80020A83E0020A4FA002018F80020AE
:1052EC00143F0020ACFA002034F700209C3600203C
:1052FC0054FA002068EA0020143B0020C0ED002086
:10530C0004EE002008EB002048EE0020AC4BC0F867
:10531C00088003601146C8E90222C8E90522C8E9E1
:10532C000722C8E90922C8E90B22C8E90D2288F82E
:10533C001020C8F83C2088F86C2000F027FBA14A0C
:10534C00A1493046FFF7DCFBA04FA14801237B604D
:10535C004360A04B3B6000229F4B8760036011466B
:10536C00C7E90222C7E90522C7E90722C7E90922D2
:10537C00C7E90B22C7E90D223A74FA6387F86C204F
:10538C0000F0B8FA924A95493046FFF7B9FB944AB7
:10539C00944B13600123944953603046FFF7B0FBE4
:1053AC00924A934B13600123924953603046FFF7A6
:1053BC00A7FB914C9149216000230122C4E90123F0
:1053CC00C4E90333C4E90533C4E90733C4E9093339
:1053DC00C4E90B33C4E90D33C4E90F33C4E9113309
:1053EC00C4E91333C4E91533C4E91733C4E91933D9
:1053FC00C4E91B33C4E91D33E3678148C4E9203396
:10540C002146C4E92233C4E92433C4E92633C4E970
:10541C002833C4E92A33C4E92C33C4E92E33C4F845
:10542C00C03084F8C4301CF02BFE754A75493046E8
:10543C00FFF766FB744A754B136001237449536084
:10544C003046FFF75DFB734A734B136001237349BE
:10545C0053603046FFF754FB7148012111F082F87C
:10546C006F4A70493046FFF74BFB6F4A6F4B136026
:10547C0001236F4953603046FFF742FB6D4A6E4B78
:10548C00136001236D4953603046FFF739FB6C4ABA
:10549C006C4B136001236C4953603046FFF730FBB3
:1054AC006A4A6B4B136001236A4953603046FFF71D
:1054BC0027FB694A02A93046CDE9022ACDE9049BB3
:1054CC00CDE9068701F064FDF36864480193FFF7AA
:1054DC00F5FC019B604A43F82020F3686048019377
:1054EC00FFF7ECFC019B43F820A05E48D6F80CA01B
:1054FC00FFF7E4FC4AF820905B48D6F80C90FFF7D5
:10550C00DDFC49F820505948F568FFF7D7FC45F801
:10551C0020B02D48F568FFF7D1FC45F820802F48C6
:10552C00F568FFF7CBFC45F820703648F568FFF7B7
:10553C00C5FC45F82040304609B0BDE8F08F044664
:10554C0001313AD1204626F03FF90D460446204859
:10555C00FFF708FA2946F3E70D4604464448FFF7DF
:10556C0001FA2946ECE70D4604464248FFF7FAF9E2
:10557C002946E5E70D4604463F48FFF7F3F929466F
:10558C00DEE70D4604463D48FFF7ECF92946D7E720
:10559C000D4604463A48FFF7E5F92946D0E70D4693
:1055AC0004463848FFF7DEF92946C9E70D4604469C
:1055BC000448FFF7D7F92946C2E725F0EFFF00BFF3
:1055CC001836002068EA002048FA0020B8EE0020C7
:1055DC0074EA0020243B00204C3600204CFA0020BA
:1055EC00F8E90020A837002074FA002008EA00200F
:1055FC00D83700207CFA0020F8EC0020E43A002098
:10560C0024EA002074F90020C8E900206437002047
:10561C006CFA0020D8E900204C400020D0FA002081
:10562C0098E900205CFA0020E0E90020B03D002061
:10563C008CFA0020E8E90020583D002084FA002074
:10564C0080EA0020843D002088FA002088EA0020AF
:10565C002C3D002080FA0020A0EA002060FA0020F7
:10566C0040FA002044FA002070F9002064FA00206F
:10567C005CEA002050EA002028F70020A8E900206E
:10568C0034F70020B4E90020F8B5174E3368002237
:10569C0004460260D3B1154D2A6822609A420AD0A2
:1056AC00134E3368BFF35B8FDB0706D52B68236083
:1056BC001A6801321A602046F8BD3046FDF742FBED
:1056CC000028F3D03046FDF743FBEFE7094F074DB9
:1056DC0002213846FFF7FEFB0748376039462F603A
:1056EC00FFF754F93368D7E730FA00203CFA002072
:1056FC0048E900203CEA002034F6002010B50446AE
:10570C00806830B32E234374A3681E492C229A74EC
:10571C001D4AA368106818630022C3E90212C3E98A
:10572C000512C3E90712C3E90912DA62174AA36822
:10573C001268586302F10A0C531EC2F10100A268F0
:10574C00C1180A4413F8011F82F838106345F6D1CA
:10575C0010BD442026F03AFD0D4AA0600023C0E99C
:10576C000023C0E90233C0E90533C0E90733C0E9BF
:10577C000933C0E90B3303828374436380F84330ED
:10578C00C0E700BF640600208C090020A8D30020CD
:10579C00043B002010B50446806830B32E234374BC
:1057AC00A3681E492C229A741D4AA36810681863BA
:1057BC000022C3E90212C3E90512C3E90712C3E9C7
:1057CC000912DA62174AA3681268586302F10A0CCC
:1057DC00531EC2F10100A268C1180A4413F8011F3C
:1057EC0082F838106345F6D110BD442026F0EEFC4B
:1057FC000D4AA0600023C0E90023C0E90233C0E9D0
:10580C000533C0E90733C0E90933C0E90B33038220
:10581C008374436380F84330C0E700BF6406002004
:10582C008C090020A8D30020F43A002010B50446BF
:10583C008068084B236010B103685B68984720466A
:10584C00FFF790F8204610BD2046FFF78BF825F0A7
:10585C00A5FE00BFE435002010B5044680680B4B54
:10586C00236010B103685B6898472046FFF77AF80D
:10587C00204625F089FD204610BD2046FFF772F822
:10588C00204625F081FD25F089FEF9E7E43500205E
:10589C0010B504468068084B236010B103685B6840
:1058AC0098472046FFF75EF8204610BD2046FFF7CC
:1058BC0059F825F073FE00BFB035002010B5044632
:1058CC0080680B4B236010B103685B6898472046D7
:1058DC00FFF748F8204625F057FD204610BD20461E
:1058EC00FFF740F8204625F04FFD25F057FEF9E76D
:1058FC00B035002038B58368044613B31E491F4DDC
:10590C0008681F4998630022C3E90712C3E909120A
:10591C00C3E90B129D60DA605A632E25A2685D61A3
:10592C0018492C259D61D0630968A2684B1E3C3236
:10593C0001F10A0013F8011F42F8041F8342F9D148
:10594C0038BD702026F042FC0F49A0600022C0E94F
:10595C000012C0E90222C0E90522C0E90722C0E911
:10596C000922C0E90B22C0E90D2203460274C2636E
:10597C0080F86C20C2E700BF8C0900206406002070
:10598C00184F0020A8D30020243B002038B5836892
:10599C00044613B31E491F4D08681F499863002223
:1059AC00C3E90712C3E90912C3E90B129D60DA605F
:1059BC005A632E25A2685D6118492C259D61D06320
:1059CC000968A2684B1E3C3201F10A0013F8011F52
:1059DC0042F8041F8342F9D138BD702026F0F6FB43
:1059EC000F49A0600022C0E90012C0E90222C0E900
:1059FC000522C0E90722C0E90922C0E90B22C0E94F
:105A0C000D2203460274C26380F86C20C2E700BF0B
:105A1C008C09002064060020184F0020A8D3002019
:105A2C00143B002010B504468068084B236010B16D
:105A3C0003685B6898472046FEF794FF204610BD2C
:105A4C002046FEF78FFF25F0A9FD00BF4C36002045
:105A5C0010B5044680680B4B236010B103685B687B
:105A6C0098472046FEF77EFF204625F08DFC204609
:105A7C0010BD2046FEF776FF204625F085FC25F06C
:105A8C008DFDF9E74C36002010B504468068084BB4
:105A9C00236010B103685B6898472046FEF762FFED
:105AAC00204610BD2046FEF75DFF25F077FD00BFB8
:105ABC001836002010B5044680680B4B236010B1DB
:105ACC0003685B6898472046FEF74CFF204625F09C
:105ADC005BFC204610BD2046FEF744FF204625F017
:105AEC0053FC25F05BFDF9E71836002090F84330A5
:105AFC000C4A10B5044602607BB1806808B125F0F1
:105B0C0047FC606908B125F043FCE06908B125F059
:105B1C003FFC606A08B125F03BFC2046FEF722FFF3
:105B2C00204610BD043B002010B50446FFF7DEFFF5
:105B3C00204625F029FC204610BD204625F024FCEB
:105B4C0025F02CFD90F843300C4A10B50446026049
:105B5C007BB1806808B125F01BFC606908B125F0A9
:105B6C0017FCE06908B125F013FC606A08B125F058
:105B7C000FFC2046FEF7F6FE204610BDF43A00203E
:105B8C0010B50446FFF7DEFF204625F0FDFB20464E
:105B9C0010BD204625F0F8FB25F000FD90F86C3088
:105BAC000C4A10B5044602607BB1806808B125F040
:105BBC00EFFBE06908B125F0EBFB606A08B125F05A
:105BCC00E7FBE06A08B125F0E3FB2046FEF7CAFECE
:105BDC00204610BD243B002010B50446FFF7DEFF25
:105BEC00204625F0D1FB204610BD204625F0CCFBED
:105BFC0025F0D4FC90F86C300C4A10B504460260C9
:105C0C007BB1806808B125F0C3FBE06908B125F0D1
:105C1C00BFFB606A08B125F0BBFBE06A08B125F058
:105C2C00B7FB2046FEF79EFE204610BD143B00201D
:105C3C0010B50446FFF7DEFF204625F0A5FB2046F5
:105C4C0010BD204625F0A0FB25F0A8FC10B504469D
:105C5C00806830B32E234374A3681E492C229A7497
:105C6C001D4AA368106818630022C3E90212C3E935
:105C7C000512C3E90712C3E90912DA62174AA368CD
:105C8C001268586302F10A0C531EC2F10100A2689B
:105C9C00C1180A4413F8011F82F838106345F6D175
:105CAC0010BD442026F092FA0D4AA0600023C0E9F2
:105CBC000023C0E90233C0E90533C0E90733C0E96A
:105CCC000933C0E90B3303828374436380F8433098
:105CDC00C0E700BF640600208C090020A8D3002078
:105CEC00043B002010B50446806830B32E23437467
:105CFC00A3681E492C229A741D4AA3681068186365
:105D0C000022C3E90212C3E90512C3E90712C3E971
:105D1C000912DA62174AA3681268586302F10A0C76
:105D2C00531EC2F10100A268C1180A4413F8011FE6
:105D3C0082F838106345F6D110BD442026F046FA9F
:105D4C000D4AA0600023C0E90023C0E90233C0E97A
:105D5C000533C0E90733C0E90933C0E90B330382CB
:105D6C008374436380F84330C0E700BF64060020AF
:105D7C008C090020A8D30020F43A002038B585689F
:105D8C00114B0360044655B12B68104A5B68934273
:105D9C00284609D1FFF7AAFE284625F0F5FA204639
:105DAC00FEF7E0FD204638BD98472046FEF7DAFDA9
:105DBC00204638BD02E0284625F0E6FA2046FEF7DC
:105DCC00D1FD25F0EBFB00BF9C380020B93B000057
:105DDC0010B50446FFF7D2FF204625F0D5FA204631
:105DEC0010BD204625F0D0FA25F0D8FB38B58568D3
:105DFC00114B0360044655B12B68104A5B68934203
:105E0C00284609D1FFF79EFE284625F0BDFA20460C
:105E1C00FEF7A8FD204638BD98472046FEF7A2FDA8
:105E2C00204638BD02E0284625F0AEFA2046FEF7A3
:105E3C0099FD25F0B3FB00BF68380020113C000031
:105E4C0010B50446FFF7D2FF204625F09DFA2046F8
:105E5C0010BD204625F098FA25F0A0FB38B58368D4
:105E6C00044613B31E491F4D08681F49986300224E
:105E7C00C3E90712C3E90912C3E90B129D60DA608A
:105E8C005A632E25A2685D6118492C259D61D0634B
:105E9C000968A2684B1E3C3201F10A0013F8011F7D
:105EAC0042F8041F8342F9D138BD702026F08EF9D8
:105EBC000F49A0600022C0E90012C0E90222C0E92B
:105ECC000522C0E90722C0E90922C0E90B22C0E97A
:105EDC000D2203460274C26380F86C20C2E700BF37
:105EEC008C09002064060020184F0020A8D3002045
:105EFC00243B002038B58368044613B31E491F4D5C
:105F0C0008681F4998630022C3E90712C3E9091204
:105F1C00C3E90B129D60DA605A632E25A2685D619D
:105F2C0018492C259D61D0630968A2684B1E3C3230
:105F3C0001F10A0013F8011F42F8041F8342F9D142
:105F4C0038BD702026F042F90F49A0600022C0E94C
:105F5C000012C0E90222C0E90522C0E90722C0E90B
:105F6C000922C0E90B22C0E90D2203460274C26368
:105F7C0080F86C20C2E700BF8C090020640600206A
:105F8C00184F0020A8D30020143B002038B585689A
:105F9C00114B0360044655B12B68104A5B68934261
:105FAC00284609D1FFF7FAFD284625F0EDF92046E1
:105FBC00FEF7D8FC204638BD98472046FEF7D2FCA9
:105FCC00204638BD02E0284625F0DEF92046FEF7D3
:105FDC00C9FC25F0E3FA00BF04390020693C00003D
:105FEC0010B50446FFF7D2FF204625F0CDF9204628
:105FFC0010BD204625F0C8F925F0D0FA38B58568D3
:10600C00114B0360044655B12B68104A5B689342F0
:10601C00284609D1FFF7EEFD284625F0B5F92046B4
:10602C00FEF7A0FC204638BD98472046FEF79AFCA8
:10603C00204638BD02E0284625F0A6F92046FEF79A
:10604C0091FC25F0ABFA00BFD0380020C13C000019
:10605C0010B50446FFF7D2FF204625F095F92046EF
:10606C0010BD204625F090F925F098FA38B5044675
:10607C008068002835D0244B244D2E2280F8242013
:10608C00A1681A680023C0E9025303742C2381F819
:10609C00253002F1230C531EC2F10100A268C11875
:1060AC000A4413F8011F82F826106345F6D1184BE9
:1060BC001868431E00F1190CC0F10100A268C11848
:1060CC000A4413F8011F82F84A106345F6D1A368FD
:1060DC001049114C04200522C3E90540C3E90712FD
:1060EC0038BD682026F072F80C4AA0600023C0E985
:1060FC000023C0E90233C0E90533C0E90733037458
:10610C00838480F86430B6E7A4D3002064060020B2
:10611C00A0D300204C0F0020440F0020B43A0020E4
:10612C0010B504468068084B236010B103685B68A7
:10613C0098472046FEF716FC204610BD2046FEF779
:10614C0011FC25F02BFA00BFF036002010B50446E8
:10615C0080680B4B236010B103685B68984720463E
:10616C00FEF700FC204625F00FF9204610BD204616
:10617C00FEF7F8FB204625F007F925F00FFAF9E7B2
:10618C00F036002038B584685CB3214B214819687F
:10619C00A06000232246E36023742E202C2360622F
:1061AC0001F1230C42F8283F4B1E13F8011F42F853
:1061BC00041F6345F9D1184B196804F1B8024B1E42
:1061CC0001F1190C13F8011F42F8041F6345F9D1B2
:1061DC001248134A04210523C4E90501C4E9072325
:1061EC0038BD05464FF4947025F0F0FF0D4AA860B9
:1061FC000023C0E90023C0E90233C0E90533C0E93C
:10620C000733C0E909330446037480F82431BCE732
:10621C00A4D3002064060020A0D30020540F00203B
:10622C00680F0020C43A002010B504468068084B63
:10623C00236010B103685B6898472046FEF792FB19
:10624C00204610BD2046FEF78DFB25F0A7F900BFB8
:10625C001437002010B5044680680B4B236010B136
:10626C0003685B6898472046FEF77CFB204625F0C8
:10627C008BF8204610BD2046FEF774FB204625F017
:10628C0083F825F08BF9F9E71437002090F8643087
:10629C000A4A10B5044602605BB1806808B125F06B
:1062AC0077F8606908B125F073F8E06908B125F05A
:1062BC006FF82046FEF756FB204610BDB43A00207E
:1062CC0010B50446FFF7E2FF204625F05DF82046A6
:1062DC0010BD204625F058F825F060F990F82431CF
:1062EC000A4A10B5044602605BB1806808B125F01B
:1062FC004FF8606908B125F04BF8E06908B125F05A
:10630C0047F82046FEF72EFB204610BDC43A00206D
:10631C0010B50446FFF7E2FF204625F035F820467D
:10632C0010BD204625F030F825F038F938B5044674
:10633C008068002835D0244B244D2E2280F8242050
:10634C00A1681A680023C0E9025303742C2381F856
:10635C00253002F1230C531EC2F10100A268C118B2
:10636C000A4413F8011F82F826106345F6D1184B26
:10637C001868431E00F1190CC0F10100A268C11885
:10638C000A4413F8011F82F84A106345F6D1A3683A
:10639C001049114C04200522C3E90540C3E907123A
:1063AC0038BD682025F012FF0C4AA0600023C0E91C
:1063BC000023C0E90233C0E90533C0E90733037495
:1063CC00838480F86430B6E7A4D3002064060020F0
:1063DC00A0D300204C0F0020440F0020B43A002022
:1063EC0038B58568114B0360044655B12B68104ACB
:1063FC005B689342284609D1FFF748FF284624F0F2
:10640C00C3FF2046FEF7AEFA204638BD984720461B
:10641C00FEF7A8FA204638BD02E0284624F0B4FF67
:10642C002046FEF79FFA25F0B9F800BFA03F0020E8
:10643C005143000010B50446FFF7D2FF204624F06C
:10644C00A3FF204610BD204624F09EFF25F0A6F8A1
:10645C0038B584685CB3214B21481968A0600023CF
:10646C002246E36023742E202C23606201F1230C5E
:10647C0042F8283F4B1E13F8011F42F8041F6345D6
:10648C00F9D1184B196804F1B8024B1E01F1190C23
:10649C0013F8011F42F8041F6345F9D11248134A3F
:1064AC0004210523C4E90501C4E9072338BD0546C9
:1064BC004FF4947025F08AFE0D4AA8600023C0E9C1
:1064CC000023C0E90233C0E90533C0E90733C0E952
:1064DC0009330446037480F82431BCE7A4D30020AC
:1064EC0064060020A0D30020540F0020680F002069
:1064FC00C43A002038B58568114B0360044655B189
:10650C002B68104A5B689342284609D1FFF7E6FED8
:10651C00284624F039FF2046FEF724FA204638BDE1
:10652C0098472046FEF71EFA204638BD02E0284662
:10653C0024F02AFF2046FEF715FA25F02FF800BFAD
:10654C00C43F0020A143000010B50446FFF7D2FF62
:10655C00204624F019FF204610BD204624F014FFDD
:10656C0025F01CF8009B03201A6070470020704730
:10657C000020704704207047009B03201A6070476E
:10658C00D0E90032B2EB030C31D030B593F900E016
:10659C001A78BEF1000F16DAC12A24D9DF2A16D8D0
:1065AC00BCF1010F56D093F801C00CF0C00EBEF137
:1065BC00800F18D10CEB821CACF54252914204D3E3
:1065CC000233036001E001330360104630BDEF2A53
:1065DC0011D8BCF1020F3DD993F801C00CF0C00EDC
:1065EC00BEF1800F39D04FF0FF32104630BD6FF046
:1065FC00010210467047F42AF5D8BCF1030F29D9D3
:10660C0093F801C00CF0C00EBEF1800FEBD1F02A54
:10661C003CD0F42A02D1BCF18F0FE4D89C7804F062
:10662C00C00EBEF1800FDED193F803E00EF0C00572
:10663C00802DD8D14FEA0C3C0CEB824202EB841239
:10664C007244A2F17272A2F502528A42BDD804338E
:10665C000360BAE76FF00102B7E7E02A12D093F8B3
:10666C0002E00EF0C004802CBDD14FEA8C1C0CEB68
:10667C0002327244A2F56222803A9142A5D30333CE
:10668C000360A2E7BCF19F0FE9D8ACE7BCF18F0F18
:10669C00C4D8A8E7D0E90032B2EB030C31D030B546
:1066AC0093F900E01A78BEF1000F16DAC12A24D94A
:1066BC00DF2A16D8BCF1010F56D093F801C00CF0AC
:1066CC00C00EBEF1800F18D10CEB821CACF54252FF
:1066DC00914204D30233036001E00133036010469E
:1066EC0030BDEF2A11D8BCF1020F3DD993F801C08F
:1066FC000CF0C00EBEF1800F39D04FF0FF321046B7
:10670C0030BD6FF0010210467047F42AF5D8BCF189
:10671C00030F29D993F801C00CF0C00EBEF1800F05
:10672C00EBD1F02A3CD0F42A02D1BCF18F0FE4D883
:10673C009C7804F0C00EBEF1800FDED193F803E01C
:10674C000EF0C005802DD8D14FEA0C3C0CEB8242E8
:10675C0002EB84127244A2F17272A2F502528A42C6
:10676C00BDD804330360BAE76FF00102B7E7E02A43
:10677C0012D093F802E00EF0C004802CBDD14FEA89
:10678C008C1C0CEB02327244A2F56222803A9142CC
:10679C00A5D303330360A2E7BCF19F0FE9D8ACE7A4
:1067AC00BCF18F0FC4D8A8E710B5034B03600446A7
:1067BC00FEF7D8F8204610BD383C002010B5034B2E
:1067CC0003600446FEF7CEF8204610BDE03B0020E7
:1067DC0010B5034B03600446FEF7C4F8204610BD09
:1067EC000C3C002010B5034B03600446FEF7BAF8CE
:1067FC00204610BDB43B002010B5054B0360044689
:10680C00FEF7B0F8204624F0BFFD204610BD00BFB7
:10681C00383C002010B5054B03600446FEF7A2F887
:10682C00204624F0B1FD204610BD00BFE03B002007
:10683C0010B5054B03600446FEF794F8204624F08F
:10684C00A3FD204610BD00BF0C3C002010B5054B2D
:10685C0003600446FEF786F8204624F095FD20469A
:10686C0010BD00BFB43B00207F2908D8D0E900320E
:10687C009A4243D05A1C0260012019707047B1F53E
:10688C00006F10B414D2D0E900239B1A012B37D916
:10689C008B09541C403B04601370036801F03F01EA
:1068AC005A1C80390260197001205DF8044B704746
:1068BC00B1F5803F19D3B1F5881F21D2D0E900235F
:1068CC009B1A032B1CD98B0C541C103B04601370AB
:1068DC000268C1F30533541C803B046013700268DA
:1068EC00C1F38513541C803BD5E7D0E900239B1AD8
:1068FC00022B05D90B0B541C203BEEE700207047F4
:10690C0000205DF8044B7047B1F5006F12D2D0E94E
:10691C0000239B1A012B48D913464FEA911CACF16A
:10692C00400C03F802CB01F03F01803903600120D9
:10693C0051707047B1F5803F16D2D0E90032D21AAF
:10694C00022A32D9C1F385124FEA113C803A01F088
:10695C003F015A70ACF1200C8039DA1C83F800C06E
:10696C000260012099707047B1F5881F1DD2D0E9E3
:10697C000032D21A032A18D9C1F30532803A10B466
:10698C004FEA914C5A70C1F3851201F03F011C1D66
:10699C00ACF1100C803A803983F800C09A70046016
:1069AC0001205DF8044BD97070470020704700BF80
:1069BC002DE9F843054640682C6884421646A0EB46
:1069CC00040237D00F4698461FE0B8F1010F2ED0C5
:1069DC004A452FD96488A4F55C43B3F5806FA4F1C4
:1069EC005774A4F5773422D204EB8121B142384696
:1069FC001DD8FFF739FF00B3D5E9004304EB490478
:106A0C009C422C60A3EB040214D02188A1F55843BE
:106A1C00B3F5806F4FF00209A1F55C40D5D3B0F50A
:106A2C00806F04D3B1424FF001093846E1D90220FE
:106A3C00BDE8F8830020BDE8F8830120BDE8F883A9
:106A4C0000B585B0184607990291089900920190FB
:106A5C000391074A02A900236846FFF7A9FF06998C
:106A6C00009A0A60029B099A136005B05DF804FB5A
:106A7C00FFFF100030B583B0CDE90023069868B154
:106A8C0007491546441E02E0B0F5881F04D268463B
:106A9C00FFF700FE013CF7D20098401B03B030BD5D
:106AAC00FFFF1000F0B59A4283B0CDE90023DDE979
:106ABC0009461AD00F4F1D460BE0FFF7EBFD831C68
:106ACC000BD0B0F5881F009A11D2954244F8040BF4
:106ADC000BD0A64239466846EFD1009A0120089B9C
:106AEC001A600B9B1C6003B0F0BD0020F7E702207E
:106AFC00F5E700BFFFFF1000F0B583B0CDE9002330
:106B0C00089E012E17464FF0010414D90F49002599
:106B1C0007E0B0F5803F38BF2C46651C0234A64216
:106B2C0009D96846FFF7B6FDB0F5881FF1D3009878
:106B3C00C01B03B0F0BDA642F9D14FF6FF716846F9
:106B4C00FFF7A8FD0098C01B03B0F0BDFFFF1000BD
:106B5C00F0B583B0DDE9096514469C42CDE90065CA
:106B6C00A3EB020245D01F4618E0022A31D96288F5
:106B7C00A2F55C43B3F5806F35D2A2F15772A2F542
:106B8C00773202EB812102266846FFF7BDFE68B31F
:106B9C0072001444A742A7EB04021AD02188A1F575
:106BAC005843B3F5806FE0D3A1F55C43B3F5806F28
:106BBC0019D37F2988BF0126E6D8009EB5420BD099
:106BCC0002221444731CA74200933170A7EB0402F9
:106BDC00E4D1009E002000E00120089B1C600B9B70
:106BEC001E6003B0F0BD009E0220F6E7009E01205F
:106BFC00F3E70020F1E700BFF0B583B0DDE909163B
:106C0C009A42CDE900162BD01F46144609E0009994
:106C1C008E4201F1010316D000930A70A74225465B
:106C2C001BD02268B2F5881F25461146684604F130
:106C3C0004040FD27F2AEAD9FFF766FE0028EDD1B3
