:0200000460009A
:100000004643464200000156000000000103030081
:1000100000000000000000000000000000000000E0
:1000200000000000000000000000000000000000D0
:1000300000000000000000000000000000000000C0
:1000400000000000010408000000000000000000A3
:100050000000800000000000000000000000000020
:100060000000000000000000000000000000000090
:100070000000000000000000000000000000000080
:10008000EB04180A063204260000000000000000FD
:10009000050404240000000000000000000000002F
:1000A0000000000000000000000000000000000050
:1000B0000604000000000000000000000000000036
:1000C0000000000000000000000000000000000030
:1000D00020041808000000000000000000000000DC
:1000E0000000000000000000000000000000000010
:1000F0000000000000000000000000000000000000
:10010000D8041808000000000000000000000000F3
:100110000204180804200000000000000000000095
:1001200000000000000000000000000000000000CF
:10013000600400000000000000000000000000005B
:1001400000000000000000000000000000000000AF
:10015000000000000000000000000000000000009F
:10016000000000000000000000000000000000008F
:10017000000000000000000000000000000000007F
:10018000000000000000000000000000000000006F
:10019000000000000000000000000000000000005F
:1001A000000000000000000000000000000000004F
:1001B000000000000000000000000000000000003F
:1001C000000100000010000001000000000000001D
:1001D000000001000000000000000000000000001E
:1001E000000000000000000000000000000000000F
:1001F00000000000000000000000000000000000FF
:10020000FFFFFFFFFFFFFFFFFFFFFFFFFFFFFFFFFE
:10021000FFFFFFFFFFFFFFFFFFFFFFFFFFFFFFFFEE
:10100000D100204325160060000000000000000011
:10101000201000600010006000D00560000000009B
:101020000000006000DC050000000000FFFFFFFF83
:10103000FFFFFFFFFFFFFFFFFFFFFFFFFFFFFFFFC0
:10104000FFFFFFFFFFFFFFFFFFFFFFFFFFFFFFFFB0
:10105000FFFFFFFFFFFFFFFFFFFFFFFFFFFFFFFFA0
:10106000FFFFFFFFFFFFFFFFFFFFFFFFFFFFFFFF90
:10140000884207D0904205D251F8043B40F8043B93
:101410008242F9D8704700BF884204D2002340F8C6
:10142000043B8142FBD870472DE9884800F012F94F
:101430000824614B614AC3F8544161496148FFF790
:10144000DFFF614A61496248FFF7DAFF614962489C
:10145000FFF7E2FF614C4FF0E0214FF470000023F2
:101460005F4AC1F8880D44F823200133B02BFAD12C
:101470005C4B80215C4A03F8011B9342FBD14FF087
:10148000E0254D4E4FF08039DFF88CB1DFF88CA1AC
:101490004FF0FF31C5F8084D0027C6F80491C6F893
:1014A00000B1C6F8F490C6F8F0A0D5F8243DDFF8F6
:1014B000708143F4E0234D4AC5F8243DD8F81C3030
:1014C00023F07F0343F04003C8F81C30D8F82430E1
:1014D00023F07F0343F04003C8F824309166D166BF
:1014E0001167516700F0BEF8414B4249A363424B7C
:1014F000E36363236B610323AF612B613F4BC5F84B
:10150000203DD5F8FC3D43F08073C5F8FC3D3C4BD5
:101510001A6842F001021A605B680B6000F0E0FAA2
:10152000C6F804913748C6F800B1C6F8F490C6F87A
:10153000F0A000F079FCD8F86C10334B334A41F43A
:101540004051C8F86C101F60C3F80871C3F81871D7
:10155000C3F82871C3F83871936BDB0708D442F6DF
:1015600015632B4951651365936B43F00103936336
:10157000264A284C936843F00113936000F0EEF87C
:1015800000F012FC00F058FC00F0D8FA00F064F80B
:101590002368132BFCD900F069FB2368B3F5967F11
:1015A000FBD300F05DF800F059F800F031FC00F0DA
:1015B0003FFC30BFFDE700BF00800D4098C3040032
:1015C000801F006000000000C0EA00201CE30460EF
:1015D00000000020A0100120C0EA002000E8002048
:1015E0003923000000E400E0A0E400E000C00A406D
:1015F00065370000401001206937000000002020FE
:10160000001000E00046C3230040084000400D40A9
:101610000000C056441001201B1018200C0D11139F
:1016200000C00F40074B4FF42A01074A07485A648D
:101630001864074A99639546BFF34F8FBFF36F8FC6
:10164000FFF7F2FE00C00A40FFFFAFAA070020002C
:1016500000000320704700BF704700BF704700BF05
:1016600000BF704710B44FF0E023002110242B4836
:10167000C3F8941DC3F89C4D1124C3F8A00D28484D
:10168000C3F89C4D1224C3F8A00D2648C3F89C4D06
:10169000254AC3F8A00D254C42F015022448C3F892
:1016A0009C4DC3F8A00D234C2348C3F89C4DC3F8B0
:1016B000A00D224CC3F89C2D2148224AC3F8A04D0E
:1016C000C3F89C0DC3F8A02D02F5A0221E4C0C32CD
:1016D0001E48C3F89C4DC3F8A02D1D4AC3F89C0DAD
:1016E0001C4CC3F8A02D01221B48C3F89C4DC3F825
:1016F000A00DC3F8942DBFF34F8FBFF36F8FC3F8C6
:10170000501FBFF34F8FBFF36F8FD3F8142D5DF8C9
:10171000044B42F44032C3F8142D70473F000010D0
:101720002500080309001000A0100120130020006C
:1017300021000207140000202500081309000010F2
:101740001600202027000B1317000040180000602F
:101750002F000B07190000702F000B13F0B5B84BCA
:101760001822B84E0120B84F83B0C3F85C62B74965
:10177000C3F86072B64DC3F86462A6F53046B54C46
:10178000C3F86862C3F86C52C3F87052C3F874525D
:10179000C3F8785248F20C75DA661A675A679A6786
:1017A000DA67C3F88020C3F88420C3F88820C1F822
:1017B0002C03A94AC1F83003C1F83403C1F8380337
:1017C000C1F83C03C1F85003A169A44B0A40A448E6
:1017D000A4491343A44AA361D4F8843043F00C0312
:1017E000C4F884304FF0FF34036843F00203036011
:1017F00003682B404FF400551A439C4B0260446031
:101800008A689B4C13409B4A43F000538360C36833
:1018100023F07803C360036A134023430362036A1F
:101820001340954A2343954C43628262C262002270
:10183000D1F8B83023F03F0343F00103C0F8B830CB
:10184000D1F8BC308E4923F03F0343F00103C0F8C8
:10185000BC3040F20563026105660467C0F8803061
:10186000456644670224C0F88430036823F002030D
:1018700003608161834B8449C46143F8042B8B422C
:10188000FBD1774A136843F001031360136813F028
:101890000103FBD17A48022140F2F564906140F2E5
:1018A0009940D16140F26641C2F8004242F20144DF
:1018B000C2F810127549C2F82002C2F8301240F284
:1018C00035417348C2F83442C2F84012714CC2F834
:1018D000500242F201207049C2F854120121C2F8AC
:1018E0006042C2F864025E48C2F8A030C2F8A43078
:1018F000C2F8B0104369DA07FCD5012300244FF485
:10190000803257494361C0F8A040C0F8A420C0F815
:10191000B0304B69DB07FCD5012300244FF40030C5
:101920004F4A4B61C1F8A040C1F8A400C1F8B030E3
:101930005369DF07FCD50123002458484849536107
:10194000C2F8A040C2F8A400C2F8B0304B69DE076C
:10195000FCD5D1F8003145F60D5221209BB24861EB
:10196000934265D100244FF4802201233C48C1F802
:10197000A040C1F8A420C1F8B0304369DD07FCD510
:1019800001234FF400040021354A4361C0F8A04010
:10199000C0F8A410C0F8B0305369DC07FCD50123AF
:1019A0004FF400044FF480302D495361C2F8A04039
:1019B000C2F8A400C2F8B0304B69D807FCD50123A7
:1019C0004FF400044FF40030254A4B61C1F8A040A9
:1019D000C1F8A400C1F8B0305369D907FCD5012380
:1019E0004FF400042D481E495361C2F8A040C2F8CC
:1019F000A400C2F8B0304B69DA07FCD5D1F8003149
:101A000045F60D5221209BB24861934250D00825E3
:101A10004FF4000422490020224B234A0090157005
:101A20005A1A01232148224400F00AFA03B0F0BDFB
:101A30001E4B0022C3E90022C3E9022203B0F0BD1D
:101A400000801F40F9B00100F910010000841F4020
:101A5000F970010000C00F40FFFCFF1F000300A051
:101A600000402A4000802A401200FFFFFF37F700A5
:101A70004000008000FFF07CFF000F836300020045
:101A8000F05AF05A00422A4000432A409F0418307E
:101A9000EB06180A3806180A06320126040003006D
:101AA00000000070000000706B1001209007012002
:101AB0004FF400044FF4802201230848C1F8A040ED
:101AC000C1F8A420C1F8B0304369DB07FCD501237D
:101AD00010254FF0807443619CE700BF00402A400E
:101AE000F0B4154A40274FF480314FF480564FF43C
:101AF00000554FF4404443F24200136913F0020FC3
:101B00000ED113F4005F0FD013F4805F0ED0002BC2
:101B1000F3DA13F4803F0BD15B060BD5F0BC7047B2
:101B2000946151619061E8E75561E6E75661E4E749
:101B30009161E2E75761E0E700800D403F4A0320F2
:101B40003F49F3EE095AD2F880304FF0000C9FED78
:101B50003D6A23F001039FED3C5A30B4C2F8803057
:101B6000C2F89000D1F8E010384DCBB2384C39486B
:101B70002B6007EE903A0B0DC1F30B21F8EEE77ADC
:101B800006EE903A07EE101A334BB8EEC77A216092
:101B9000F8EEE66A314937EEC66A37EEC55A76EE98
:101BA000C76A77EEE57A26EE266AC3ED006A25EE6F
:101BB000265AD2F8803067EEA64AC0ED007AC6EE0B
:101BC000275A274885EE276AC4EEA76A75EE875A1A
:101BD000FCEEE55A36EE076A15EE904ABCEEC66A90
:101BE00043EA045376EE877AC2F8803016EE103A54
:101BF000D2F89041FCEEE77A01EA0341214317EE67
:101C0000903AC2F89011C3F30B03D2F890110B4332
:101C10001449C2F89031D2F8803043F00203C2F880
:101C20008030114B80F840C0C1F840314FF0E023C4
:101C3000012230BCC3F80821704700BF00810D406D
:101C400000441F400000AA420000B442440F01209B
:101C5000400F0120480F01204C0F01200000FF0F12
:101C600000E400E000E800202D250000314B40F6A4
:101C7000617210B5C3F8202140F2044400F0D0F89E
:101C80002D4A2E49D2F880302D4843F00303C2F884
:101C900080302C4BC1F8604102681A4203D1D1F860
:101CA000A8319A071BD0254A4FF00041244B5963B5
:101CB000D2F8403143F00203C2F84031D2F840314B
:101CC0009B07FBD44FF400304FF0E0211C4B4FF04A
:101CD0000042C1F88C0219209A6300F095F8184A66
:101CE0004FF08040154C002190630A20164B116084
:101CF0004FF42072C4F8A801184600F08DF84FF494
:101D0000800203464FF4810040F243111860C4F88A
:101D100058311A640D4B0E4AC4F84811C3F8042216
:101D20004FF0E0224FF400310123C2F80C11C4F847
:101D3000403110BD00800D4000C00F4000002E401B
:101D400000900D40001C1E000000002000E8002054
:101D50001527000008B50E4B1B6E9B0700D4FBBE79
:101D600072B60C4B00200C4AC3F8400103F16043EB
:101D70000A49A3F55F2311649D46BFF34F8F4FF4CB
:101D800000130748074ADB6902609B68984700BF59
:101D900000441F4000002E4000C00A400300200005
:101DA00000802020000012EB104BA020104AD96EBA
:101DB00041F4403110B4D96640F23764D96E41F431
:101DC0004071D96654649064936C1B06FCD4094A34
:101DD00040F23761A02351649364936C13F0800345
:101DE000FBD1054A13705DF8044B704700C00F40EB
:101DF00000400C4000800C406A100120F8B500BF84
:101E0000F8BC08BC9E4670475FF800F02520000033
:101E10005FF800F0FDBB03005FF800F0218C0300C9
:101E20005FF800F0852E00005FF800F089370000B1
:101E30005FF800F0912100005FF800F0F53A000033
:101E40005FF800F05D3C00004500000079020000F2
:101E5000D1170000851C0000BDF300004D5D01009E
:101E600099FE0100B9A3020035AD0200CDD60200F3
:041E70008DD9020006
:101E74001603550053004200200053006500720011
:101E8400690061006C0000001803540065006500DF
:101E94006E00730079006400750069006E006F00C5
:101EA4000403090409026200030100C032080B00A4
:101EB40002020201000904000001020201000524DB
:101EC4000010010524010101042402060524060072
:101ED400010705820310001009040100020A000032
:101EE40000070503024000000705840240000009C2
:101EF40004020002FF6AFF00070581024000010797
:101F0400050102400001000009026200030100C053
:101F140032080B000202020100090400000102025F
:101F24000100052400100105240101010424020616
:101F340005240600010705820310000509040100B9
:101F4400020A0000000705030200020007058402DC
:101F54000002000904020002FF6AC70007058102AB
:101F64000002010705010200020100000A06000246
:0C1F7400EF02014001000000000000002E
:101F80000000000000000000000000000000000051
:101F90000000000000000000000000000000000041
:101FA0000548064B1B1AD90F01EBA301491002D0BB
:101FB000034B03B118477047C0EA0020C0EA002075
:101FC0000000000008B5054B1BB105490548AFF3FB
:101FD0000080BDE80840FFF7E3BF00BF000000003D
:101FE000A00E012000DC05602DE9F843154D40F2FC
:101FF000EE28154C154FDFF85C902E6803F0D8FAE8
:10200000237893B13B78DB070FD52B68D9F80020F4
:102010009B1A0E2B09D901210D4801F077FD40F6DE
:10202000B830BDE8F84301F0BDBF2B6822789B1B98
:102030002AB1B3F5FA6FEED803F0BAFADEE74345FA
:10204000FAD9E8E744100120731001207210012032
:102050003410012054100120614A10B52DED0A8B77
:1020600092ED008AB5EE408AF1EE10FA07D1D2ED7A
:10207000017AF5EE407AF1EE10FA00F08980594BC2
:10208000D3ED007A93ED017AF5EE407AF1EE10FA95
:1020900004D1B5EE407AF1EE10FA79D092ED01CA92
:1020A00038EE678A93ED029A3CEE47CAD3ED036A95
:1020B000B7EEC88A39EE679AB7EECCCA76EEC77A21
:1020C000B7EEC99A2CEE0C0BB7EEE7BAA8EE080BE8
:1020D000B5EE400BF1EE10FA62D4B1EEC0AB2BEED0
:1020E0000B0BA9EE090BB5EE400BF1EE10FA52D432
:1020F000B1EEC07B2AEE07AB9FED317BB4EEC7ABF0
:10210000F1EE10FA18DC5A219FED377A374C384837
:1021100084ED007A01F02EFD94ED000A022135488D
:10212000B7EEC00A01F08CFE41F28830BDEC0A8B9C
:10213000BDE8104001F036BF28EE090BACEE0B0BEA
:1021400080EE0A0B33F0C2FC29EE4C9B9FED1E7B08
:102150009FED1F6BA8EE0B9B20EE070B80EE067B1E
:1021600089EE0A6BB5EEC06B9FED1B6BF1EE10FABA
:102170001BD537EE067B1D4C1D48B7EEC77BFDEE29
:10218000C77A84ED007A17EE901A01F0F3FCC3E7EA
:10219000BDEC0A8B10BD33F0C7FCB0EE407BA9E765
:1021A00033F0C2FCB0EE40AB99E736EE477BB7EEBA
:1021B000C77BFDEEC77A17EE901AA7E7AFF3008052
:1021C000BC89D897B2D29C3C0000000000806640D9
:1021D000182D4454FB2109400000000000805640A7
:1021E000C40E0120E40601200000B4423C1001208E
:1021F0003410012088D6002010B5074C204603F08B
:102200000FFF2046054A064903F02AFD0548BDE8B0
:10221000104001F057BC00BF5C0301205CD70020D8
:10222000C540000034100120034608205A680A7097
:102230005A68C2404A70DA888A70DA79CA709A6835
:102240000A719A68C2404A715A898A71DB7ACB71E5
:10225000704700BF0A7803464260487842EA00228D
:102260005A60887842EA00425A60C87842EA0062BE
:102270005A600A799A60487942EA00229A6088791D
:1022800042EA004208209A60C97942EA01629A60F3
:10229000704700BF0048704724080020004870477E
:1022A0000008002000487047BC0600200048704726
:1022B00098060020004870478406002000487047B8
:1022C0006006002000487047D8060020004870478C
:1022D0003C06002000487047E00700200048704797
:1022E000BC07002000487047600700200048704786
:1022F0003C07002000487047A007002000487047B6
:102300007C070020C26A034B1168526819605A604A
:10231000704700BFE4060120C26A034B116852688F
:1023200019605A60704700BFC40E0120006C7047EE
:1023300000487047A0070020004870477C07002035
:1023400090F8F804704700BF70B5054640680C4629
:102350003BF076FE030C0646020A2070A370030EC3
:1023600062700246E370201D696801F0D9FEAB6817
:10237000A11906F10C000B71AB681B0A4B716B893C
:102380008B71EB7ACB71EB680B72EB681B0A4B72AB
:10239000EB898B72EB7BCB7270BD00BF43682DE97C
:1023A000F0470B70044643680E461B0A4B70C38807
:1023B0008B70C379CB704368002B00F086800B468E
:1023C000C6F1080E0021E2680EEB0300043352F858
:1023D000212001314FEA122C1A70170C150E83F8C8
:1023E00001C09F70DD7062688A42ECD800F1040C75
:1023F00000F1010A00F1020900F1030800F1050EE5
:10240000851D6346C11D00F1080722693254226907
:10241000120A06F80A20628A06F80920E27C06F809
:102420000820226902B333440021C6F1040EA269D8
:102430000EEB030C043352F821200131170A03F884
:10244000042C150C100E03F8037C03F8025C03F84F
:10245000010C22698A42EAD80CF1010E0CF1020546
:102460000CF103010CF10407E36906F80C30E36991
:102470001B0A06F80E30E38B7355E37F7354E36950
:1024800003B34FF00008636A4FEA880953F8280045
:102490003BF0D6FDF2190023054625FA03F0083378
:1024A000202B02F8010BF8D1636A04372A4608F1A1
:1024B000010853F80910F01901F032FEE3692F44C6
:1024C0004345E0D83846BDE8F08708230C270B21A8
:1024D0000A254FF0090E4FF007089C464FF00609F9
:1024E0004FF0050A042090E770B5037906460D46C3
:1024F0000B7080683BF0A4FD0446030C6870020A70
:10250000EB70030EAA7002462B71681DB16801F0D2
:1025100007FE601D70BD00BFF8B5838806460C46F7
:102520000B7083881B0A4B7080683BF089FDA0709C
:10253000030C0546020A2371030EE2700246637122
:10254000A01DB16801F0ECFDF0683BF079FD691D5C
:1025500002460023214422FA03F00833202B01F81D
:10256000010FF8D10A35F168AF18601901F0D8FDF4
:1025700030693BF065FDE2190546002325FA03F1B9
:102580000833202B02F8011BF8D104372A463169A1
:10259000E01901F0C5FD73697819190C235422184C
:1025A0001D0A04301B0E91705570D370F8BD00BF2A
:1025B0000846114602F07EBF02F056BF2DE9F04FEB
:1025C000436883B00E6804460D46B342C0F0B28043
:1025D0006660002E00F0B7802A460020C5F1080C86
:1025E00093790CEB020792F8058004321B0492F8F1
:1025F00000E0D67843EA0823E16843EA0E0343EAA1
:102600000663A36041F82030013063688342E7D855
:102610003E1D781CBB1CF91C07F1050A07F1060BCF
:10262000324607F1070807F10809EB5C15F800C00E
:10263000E85D1F04695C47EA0C272369074347EA02
:102640000167BB42C0F09480276127B32A44002071
:10265000C5F1040C93780CEB020692F80180043269
:102660001B0412F804EC12F8017C43EA0823A16968
:1026700043EA0E0343EA0763636141F82030013007
:1026800023698342E6D806F1010A06F1020B06F13E
:10269000030806F1040915F80B30A95D15F80A00C6
:1026A0001E0415F8082046EA0026E3690E4346EAB0
:1026B0000266B34256D3E661AEB34FF000086FF046
:1026C00003074646002305EB0901184611F8012BC4
:1026D0009A400833202B40EA0200F7D109F10401A7
:1026E00001EB000A514522D2A7EB090209F10503CB
:1026F00009F103092944524405EB0900534588BFF9
:10270000012238F0D1F905EB0A0205EB0903D146A5
:1027100002F8016C626A236242F8283008F101086D
:10272000E3694345CED8484603B0BDE8F08F09F1D0
:102730000309E8E7B100C06834F04EFF6660E0606E
:10274000002E7FF449AF08224FF00C094FF00B0820
:102750004FF00A0B4FF0090A072116460623052001
:10276000042762E7B100606A34F036FF6062A2E7D6
:10277000B900A069019234F02FFF019AA06163E7CC
:10278000F8B500230A780D46064602711C460A4633
:1027900012F801CF0CFA03FC0833202B44EA0C0496
:1027A000F6D1671D2B1D052F05D918462246691D38
:1027B00038F07AF903462544002238462A71B3607E
:1027C000F8BD00BFF8B500230E4605464A1E1C465C
:1027D00012F801CF0CFA03FC0833202B44EA0C0456
:1027E000F6D1271DF31C042F05D918462246311DAA
:1027F00038F05AF903463219002104F10C00D17067
:102800006B60F35DAB60517943EA0123AB60917972
:1028100043EA0143AB60D17943EA0163AB60137AC9
:10282000EB60517A43EA0123EB60917A43EA01437A
:10283000EB60D27A43EA0263EB60F8BDF8B50B783F
:102840000D4607464C1D83804A7843EA0223838065
:102850000E79CB78360446EA03264B7946EA0366BE
:102860008B781E43B31D062B04D932460631204611
:1028700038F01AF9711D00236B542944BC601C46C2
:1028800011F8012F9A400833202B44EA0204F7D1B3
:1028900006F10A010C44A14237D2A21B0936294491
:1028A0000A3AA81938F000F9002329192E441846CD
:1028B00001F8013CFE6011F8012B9A400833202BEF
:1028C00040EA0200F7D1211D0E18B1421FD2321B7F
:1028D000631D03342944043A28199E4238BF01225B
:1028E00038F0E2F8AA192C440023301D02F8013C0C
:1028F0003C61937854781B04A95DD27843EA0423A1
:102900000B4343EA02637B61F8BD0936CCE703342D
:10291000E8E700BF2DE9F84F4368804689460B7011
:1029200043681B0A4B70C3888B70C379CB704368B4
:10293000002B60D000260427DFF8C8A030E06068D4
:1029400001363BF07DFB05460BF104002B0C09F82A
:1029500007502A0A8BF802302B0E8BF801202A46EA
:102960008BF80330616801F0DBFBA3680BEB050219
:1029700005F10C0013710744A3681B0A53716389A6
:102980009371E37AD371E3681372E3681B0A53729D
:10299000E3899372E37BD372D8F80430B34213D93E
:1029A000D8F81840330109EB070BE35804EB061481
:1029B0001B685345C3D05946204698470136D8F87E
:1029C00004300744B342EBD87C1CB91CFA1C381DF8
:1029D000D8F81C3009F80730D8F81C301B0A09F861
:1029E0000430B8F81E3009F8013098F81F3009F8A3
:1029F0000230BDE8F88F08200722062105240427AD
:102A0000E6E700BFC903000070B5044604300D4678
:102A1000FFF780FF636A2B542B18626A120A5A7000
:102A2000E28C9A7094F82720DA70626ABAB14FF09B
:102A3000000CC5F10801E26AC818043352F82C20D2
:102A40000CF1010C160A1A70150C4FEA126E5E702A
:102A50009D7083F803E0626A6245ECD870BD043073
:102A600070BD00BF2DE9F84F436804460D688A46E3
:102A7000AB4277D36560002D7CD0002604F10807B7
:102A80004FF004080AEB080500236A1E994612F865
:102A9000011F99400833202B49EA0109F7D109F1B8
:102AA000040BEB1CBBF1040F05D918464A46291D3F
:102AB00037F0FAFF034605EB09024FF00001300141
:102AC00009F10C09D170E360C84415F80B3023619B
:102AD000517943EA01232361917943EA0143A169D2
:102AE0002361D57943EA05632361137A6361557ADB
:102AF00043EA052301EB06150136636192F80AC02B
:102B000043EA0C436361D27A43EA02636361FB6880
:102B1000D7F800E0D7F804C0BA6841F800E0C5F87B
:102B200004C0AA60EB606368B342ABD808F101054A
:102B300008F1020108F1030208F104001AF8083054
:102B4000E3611AF8055043EA0523E3611AF801101E
:102B500043EA0143E3611AF8022043EA0263E361B6
:102B6000BDE8F88F2901806934F036FD6560A06109
:102B7000002D82D108200722062105254FF00408E8
:102B8000DCE700BF2DE9F0410F4604460430FFF7B3
:102B900069FF07EB00083A5C051D98F8026098F899
:102BA00001103604636A46EA0126164398F80320AA
:102BB00046EA0266B34220D36662DEB142464FF077
:102BC000000CC7F1080193798D18577904321B0462
:102BD000167892F803E043EA0723E06A334343EAB6
:102BE0000E63A3629E4640F82C300CF1010C636A20
:102BF0006345E8D82846BDE8F081B100E06A34F0CA
:102C0000EBFCE062D8E700BF2DE9F0410E46044638
:102C10001030FFF727FF3718335C04F10C05BE783E
:102C20007A78360446EA02261E43FB7846EA0366B3
:102C3000236B9E421ED82663BEB13A46002193798B
:102C4000043256781B0492F800E092F803C043EA7D
:102C50000623A06B43EA0E0343EA0C63636340F868
:102C600021300131236B9942E9D3E36B2846BDE85B
:102C7000F0411847B100A06B34F0AEFCA063DAE776
:102C80006329F0B5044685B00E46104603DD94F87E
:102C9000F854002D3FD0036804F223211B689847A5
:102CA000C0F307235FFA86FE4FF6FF61034446F345
:102CB0000726A4F81C12DB4384F82262A4F81E0243
:102CC00084F82032431C84F821E22EDB04F2222215
:102CD00004F221234FF0000C024401E013F801EF4D
:102CE0009342F444FAD16FEA0C0C5FFA8CFC00F1C9
:102CF000080540F2012322189D4282F823C217D012
:102D0000666804F50770334A33685B68934205D1FF
:102D1000294602F0CFFB284605B0F0BD01462A4601
:102D200030469847284605B0F0BD4FF0FF0CDEE76F
:102D3000294A032123688DF808101B680192274A4D
:102D4000274D934203953AD104F50A7605F1300EEA
:102D5000AC4610361035BCE80F00F44546F8100CB0
:102D600046F80C1C46F8082C46F8043CF0D13823F1
:102D7000DFF874E01B4F04F2212203CD306004F22F
:102D80005F2071600721C4F824320023C4E987E77B
:102D900001E012F8011F90420B44FAD1DB43656851
:102DA0000C4A04F5077084F860322B685B68934224
:102DB0000AD1452102F07EFB4FF0FF35ABE701AAB7
:102DC000072120469847F7E70146452228469847BD
:102DD000F2E700BF3106000014330020010D0000AF
:102DE000F4060020C2070003FFFE3D002DE9F84372
:102DF000214D40F2EE28214C214FDFF890902E68B3
:102E000002F0D6FB23784BB33B78DB0726D52B6843
:102E1000D9F800209B1A0E2B20D91A48002100F562
:102E200083620B46C0F8E414C0F8E814C0F8F0144C
:102E3000C0F8EC1402E00133192B0BD052F8041F38
:102E40000029F8D1104A00EB83017D33C1F81C241E
:102E5000C2E90230BDE8F843FFF7C6B82B68227814
:102E60009B1B2AB1B3F5FA6FD7D802F0A1FBC7E7D5
:102E70004345FAD9D1E700BF441001207310012067
:102E8000721001206C090120D0060120541001208D
:102E9000FFF7E2B830B5002385B01E4904461E4A4C
:102EA0000393CDE9011301680D68954228D11B48B1
:102EB00040F6F72104F22122C4F82432A4F8283283
:102EC00084F82A32C4E9870104F22A200A2101E0A9
:102ED00012F8011F82420B44FAD1DB436568104AA5
:102EE00004F5077084F82B322B685B6893420BD192
:102EF000102102F0DFFA0B4B1B68E36005B030BD18
:102F000001AA0A21A847F6E7014610222846984759
:102F1000F1E700BFB8330020010D0000FFFE0800FC
:102F200031060000441001202DE9F04FB24B8BB068
:102F3000B2490022044600F5836600F27C45B04F9A
:102F4000DFF8D892DFF8D882069304910793CDE991
:102F5000083256F8043F002B64D01A68D3E9010107
:102F60000368ADF8141006929B6898473368079081
:102F700058680368DB68984723684FF4007132682B
:102F80001B68D2F810A0BB420890099140F0D7808E
:102F9000BAF1630F03DD94F8F834002B42D004F249
:102FA000232104A8FFF7B8FA4FF6FF635FFA8AFC03
:102FB000421CA4F81C32C0F307234AF3072A84F802
:102FC00021C20344A4F81E0284F822A26FEA03037C
:102FD00084F82032C0F2C48004F2222104F22123BA
:102FE0000022014401E013F801CF8B426244FAD180
:102FF000D243D3B200F1080140F2012204EB000CED
:1030000091428CF8233200F0AD80D4F804C004F56E
:1030100007707C4ADCF800305B68934240F0948093
:1030200002F048FAB54294D104F59C66DFF8F481C9
:10303000754F55F8042F002A66D0D2E90030996800
:10304000ADF8140041459068069073D16F48D96877
:103050000790B94269D16E485B684FF4007E6D49B4
:10306000CDE9080E8B422068D0F8009059D1D2F8F3
:1030700040B0DFF88CA1D1454ED1BBF1630F03DD29
:1030800094F8F834002B3FD004F2232104A8FFF772
:1030900043FA4FF6FF635FFA8BFC4BF3072BA4F860
:1030A0001C32C0F3072384F821C20344A4F81E0293
:1030B00084F822B2DB4384F82032431C4EDB04F256
:1030C000222104F221230022014401E013F801CF60
:1030D00099426244FAD1D243D3B200F1080140F2DE
:1030E000012204EB000C91428CF8233200F09E8008
:1030F000D4F804C004F50770424ADCF800305B687D
:10310000934226D102F0D6F9B54292D1012384F838
:10311000F8340BB0BDE8F08F04AA59462046C847E2
:10312000F2E7104698478346A3E7104688472A6887
:10313000136891E7104688472A68136887E704AA4E
:103140005146204698476DE70A4601466046984733
:1031500068E70A46014660469847D5E7FF23BCE783
:10316000FF2347E70323CDF804908DF80830236848
:10317000D3F800A0284BBA45039340F0A1809C46A9
:1031800004F50A7E03F1300BE2460EF1100E0CF14D
:10319000100CBAE80F00DA454EF8100C4EF80C1C73
:1031A0004EF8082C4EF8043CEED13823DFF878A016
:1031B00004F22122BCE80300CEF8000004F25F20F4
:1031C000CEF804100721C4F81C82C4E988A30023A8
:1031D00001E012F8011F82420B44FAD1DB4362681E
:1031E000084804F5077184F8603213685B6883420D
:1031F00070D10846452113E7A80800202C33002091
:10320000010D000031060000B9030000A0070020F6
:103210007C070020AD030000F406002014330020DA
:10322000FFFE3D00B1030000C207000303238DF839
:1032300008302368D3F800B02A4BD34501932A4BBA
:10324000039342D19C4604F50A7E03F1300BE2461B
:103250000EF1100E0CF1100CBAE80F00DA454EF822
:10326000100C4EF80C1C4EF8082C4EF8043CEED115
:103270003823DFF880A004F22122BCE80300CEF856
:10328000000004F25F20CEF804100721C4E988A3EF
:10329000164BC4F81C32002301E012F8011F9042C3
:1032A0000B44FAD1DB436268114804F5077184F8D6
:1032B000603213685B68834210D10846452121E7DC
:1032C00001AA07212046D047ACE601AA07212046E3
:1032D000D84719E7104645229847A3E610464522ED
:1032E000984711E714330020F4060020FFFE3D004C
:1032F00031060000C20700032DE9F04FB64F42F639
:10330000F822D0F8003587B03E680446F31A93429D
:1033100002D9002380F8F834D4F8E43423B1D4F887
:103320000435B342C0F04F81AC4DDFF8CC82DFF8FA
:10333000CC92A36923B13A68921B9342C0F04781B3
:10334000606803685B69AB4240F01E8102F08CF854
:103350000028C0F21D81D4F8F434D4F8E4240344E6
:10336000072AC4F8F43400F0FF80082AE1D801A14C
:1033700051F822F0C71500004D1500003715000068
:10338000231500001115000001150000DD140000D8
:10339000B313000019140000914A00211A40C4F828
:1033A000E414FF2AC5D1D4F8EC34002B00F0B4812A
:1033B0000A2B00F02581062B00F086810B2B00F0F4
:1033C0004881BC3354F823A0BAF1000FB1D0DAF829
:1033D000003004F11C01834A1B68934240F0948141
:1033E0000AF110000091FFF73DFB00990246DAF860
:1033F00030000AF10C0B01EB020C895C9CF80230E6
:103400009CF801E01B0443EA0E230B439CF80310D5
:1034100043EA0163834200F26B81CAF83030C3B1E2
:10342000A018002190F822300430427F1B0443EAA8
:103430000223027F1343C27F43EA0263DAF8382093
:10344000CAF8343042F821300131DAF8303099428C
:10345000E8D3DAF83C30584698476AE7D4F8EC34B9
:10346000072203EB0023C4F8E424D4F8E824C4F8CA
:10347000EC34002A7FF45DAF0823C4F8E43458E745
:103480000623C4F8EC04C4F8F404C4F8E43450E7A8
:10349000534A1A40FF2A0CBF05230023C4F8E43422
:1034A00047E7D4F8E834042203EB0023C4F8E4240B
:1034B000C4F8E8343DE700220323C4F8E804C4F864
:1034C000F404C4F8F024C4F8E43432E7FE2876D0DB
:1034D0000023C4F8E43494F8F834002B7FF429AFC7
:1034E0002268D2F800A0404A0392404A9245CDE9B2
:1034F000043340F0F3803E4940F6F72204F22A20DC
:10350000C4F82432A4F8283284F82A32C4E9871295
:1035100004F221220A2101E012F8011F82420B4429
:10352000FAD1DB436268334904F5077084F82B3223
:1035300013685B688B4240F0D680102101F0BAFF1F
:103540003B68E360F5E6FF2831D03B6841F2883202
:103550009B1B93427FF6EDAE00236FF0010084F8D1
:10356000F83407B0BDE8F08FD4F8F0345A1C234487
:10357000C4F8F0241877D4F8E834013BC4F8E834F0
:10358000002B7FF4D6AE77E798470028BFF6E3AE6E
:1035900094F8F8040028E4D0D4F8FC3440F6C412BF
:1035A000F31A934258D8002007B0BDE8F08F0123EA
:1035B000C4F8E43406F11403C4F80435B9E6022370
:1035C000C4F8E434B5E60023C4F8E434ACE66FF0A4
:1035D000010007B0BDE8F08F44100120390600005B
:1035E000FF000080890C0000B8330020010D0000AE
:1035F000FFFE080031060000D34D621000CA9A3B5E
:10360000E2684FF47A7C39683B68891AA8FB03208A
:10361000E269A2EB90128009013A0CFB1033A8FB7F
:1036200001E002EB901280092261444A0CFB101168
:10363000206A02FB1393034404F1100002FB0133E0
:10364000214641F8143F00F075F93B68C4F8003595
:103650006FE684F8F8146CE6226800233849156890
:10366000384A03919542CDE9043350D1364A04F2E9
:103670002A200A21C4F82432C4F81C2240F6F7227A
:10368000A4F82832C4F8202204F2212284F82A3235
:1036900001E012F8011F82420B44FAD1DB43626859
:1036A0002A4904F5077084F82B3213685B688B4253
:1036B0003FD1102101F0FEFE3B680020C4F8FC64FD
:1036C000E36007B0BDE8F08F04F11C0104F20C5078
:1036D000FEF774FF012384F808352AE603AA0A21BD
:1036E0002046D0472CE7014610461022984727E78E
:1036F0009900DAF838000192009333F06DFFCAF8B0
:103700003800DDE9003288E65046984711E603AA02
:103710000A212046A847CFE72046FFF7BBFB2046FB
:10372000FFF702FC4FF0FF30C4F8FC64C4F80065FA
:1037300017E70146104610229847BDE740420F00A8
:10374000B8330020010D0000FFFE08003106000024
:103750002DE9F84F5F4E00245F4D4FF4007730465F
:10376000DFF8BC9102F05CFC5C4A30465C4902F038
:1037700077FA5C4B5C4A64266B604FF461432A60C5
:103780002146AB603A4605F11C00EC602C616C618F
:10379000AC6137F005FA3A46214605F5077037F077
:1037A000FFF93246214605F21C4037F0F9F932465E
:1037B000214605F5906037F0F3F94C4BDFED4C7A7C
:1037C00005F5A4654B484FF0010E45F8143CDFF8B1
:1037D00054C1494F494E45F83C4C45F8384C45F8E2
:1037E000344C45F8304C45F82C4C05F8284C45F83D
:1037F000244C45F8204C45F81C4C05F8184C45F86D
:10380000104C45F80C4C45F8084C45F8044C6C60DD
:10381000AC60EC602C61DFF810B1C5ED007A384D7A
:103820003849DFF80881DFF808A1C0F800C0446219
:10383000C0ED0A7AC462C6600561334A334BC0E901
:103840000174C0E90544C0E90744C9E900B0304843
:10385000C1F800808860C1ED0D7AC1F840E02D48C4
:10386000C9F81040C3F83CA0C3F80080C3ED0D7A3E
:103870009C63C1E903C7C1E90546C1E90754C1E931
:103880000944C1E90B44C1E90E4A2349C3E903C70E
:10389000C3E90546C3E90754C3E90944C3E90B4436
:1038A000C3F840E0C2F8008054611463C2ED0D7AA1
:1038B0009463C2F840E0D0639160C2E903C7C2E9F3
:1038C0000665C2E90844C2E90A44144A9A60BDE8A0
:1038D000F88F00BF600301206C0901205CD7002035
:1038E000C540000088D600205C330020FC32002058
:1038F00000000000A006012070330020A03300204B
:10390000A8080020F4060120CC0E01203807012071
:10391000F405002099030000280600200C06002072
:10392000D006012088330020E40500204433002025
:10393000850300000B6830B45A0A074C0568A4FBE5
:103940000242D40905EBD2120260044A02FB14338E
:1039500030BC0B60704700BF834B040000CA9A3B29
:1039600010B5044600F0EAF9204610BD2DE9F041FB
:103970004A4E3078FF2802D0002100F067FB484D06
:103980002B780B2B48D8474F01213C6801FA03F2F2
:10399000224278D1FF2232700133DBB20B2B37D8B1
:1039A0002B7000204FF0010C03E0CBB201200C2B58
:1039B00035D00CFA03F2591C2242F6D000B12B701C
:1039C00039493A4A31F81310136807EE901A0B443C
:1039D000FBEECE7A1360F5EEC07AF1EE10FA15D94F
:1039E0009FED337AF4EEC77AF1EE10FA0EDCF3EEC7
:1039F000086ABEEE007AA7EEA67AFCEEC77A17EE4A
:103A0000903A102B02D92B4A1268A2B9BDE8F08176
:103A1000002213462A70C4E7224A1468BAE7234AF0
:103A2000254811682B70814208D9224B1B680BB1C5
:103A30009521196000231360BDE8F0811F4B5B1ACC
:103A400007EE903AFAEECE7AF5EEC07AF1EE10FA81
:103A5000F0D99FED177AF4EEC77AF1EE10FAE9DCAF
:103A6000F3EE086ABEEE007AA7EEA67AFCEEC77AFD
:103A700017EE903A102BDDD90E4909680029D9D0EC
:103A8000C1ED007AD6E70E4A12F80380404600F0F6
:103A9000DDFA2B783C6886F800807DE710E5002091
:103AA0000FE5002074ED00205CED00206403012090
:103AB000ABAA2A4D98D60020FFE1040000E20400E2
:103AC0007CED002030B40F4D00230C2101222C6826
:103AD000037122424FEA420C0BD0037901391FFADD
:103AE0008CF203F101030371F3D1FF2330BC0371A6
:103AF0007047054914430B682C6023EA020330BC6D
:103B00000B60704778ED002074ED002038B5044656
:103B100000790B2800D938BDCDB20121284600F02C
:103B2000BFFA20790E4B0F4A0F491D5445F6C05578
:103B3000012321F81050834011680C4D0B434FF4C2
:103B4000085113604FF416422B6821806280002BCD
:103B5000E1D1EF220649284600F08CF8207938BDE3
:103B60007CED002074ED00205CED002098D6002054
:103B7000ED19000003790B2B1ED8B1F5087F2DDA63
:103B800021EAE171B0F800C04288B429A2EB0C022E
:103B9000A8BFB421002A02FB01F10EDB5A31174AFB
:103BA00082FB0102C81700290A44C0EBE2129444C8
:103BB00011DB134A22F813C070475A390F4A82FBAF
:103BC0000102C81700290A44C0EBE2129444F0DB5A
:103BD0000CF1010CEDE70CF1FF3CEAE702884FEA3B
:103BE000011CB2EB011F04DC42886245A8BF62469B
:103BF00092B2034921F81320704700BFB7600BB69B
:103C00005CED0020024A0349034802F029B800BFD6
:103C10005CD70020E119000098D6002010B5134CA5
:103C2000236813B1124AD168E1B9636813B1104A2D
:103C3000D16999B9A36813B10D4AD16A51B9E36842
:103C40003BB10B4AD16B21B10121BDE81040D163DA
:103C5000184710BD0121D1629847F0E70121D161D9
:103C60009847E7E70121D1609847DEE7C0EA0020E6
:103C7000004108400368844610B473B30020986084
:103C80000120D8601A60234A23481A44234C121199
:103C900040F822100320224998609CF80430214803
:103CA0008B540B784A78C0F828429342887828BF12
:103CB0001346CA78834228BF0346934228BF13465F
:103CC000194C4FF0E0224FF08061012084F87A30E7
:103CD0005DF8044BC2F80C1170471448144CC36EC5
:103CE00043F44053C3660120124B18601248034648
:103CF000CCF8000098680028C4D01033A342CCF858
:103D00000030F7D100235DF8044B1846CCF80030A2
:103D1000704700BF00BFF7BFC0EA00209D1C000035
:103D2000B4D6002000E8002000E400E000C00F400E
:103D3000404108400040084000410840026822B36A
:103D4000124B00214FF0FF0C134410B51B11104C07
:103D5000916044F823100124D4600E4A02F803C095
:103D6000137892F801C092F802E0634528BF6346D9
:103D700092F803C0084A734528BF7346634528BFBD
:103D8000634682F87A30016010BD704700BFF7BF0C
:103D9000C0EA0020B4D6002000E400E0084601F0AC
:103DA00073BB00BF012A70B508BF0A228AB091B365
:103DB0004FF0210E01E05FFA86FE0EF1FF36B1FBF7
:103DC000F2F502FB15145FFA84FC092C0CF13704A0
:103DD0000CF1300C98BF5FFA8CF40EF1280C88BF00
:103DE000E4B29142EC4429460CF8244CE3D24BB1A6
:103DF0000EF1FF3E2D225FFA8EFE0EF128036B447A
:103E000003F8242C036801A9CEF122025B687144F7
:103E100098470AB070BD30224FF0210E8DF8252052
:103E2000E5E700BF054B022888BF034610B41C68B5
:103E3000184663685DF8044B184700BF88D6002019
:103E4000B4EE400B70B5F1EE10FA05462DED028B85
:103E500086B07CD6B0EEC07B9FED476BB4EE467B60
:103E6000F1EE10FA6BDC9FED467BB4EEC70BF1EE82
:103E700010FA5ADC9FED447BB4EEC70BF1EE10FA5A
:103E800053D4B5EEC00B0C46F1EE10FA5BD4002310
:103E9000B6EE007B002C5ED04FF0000C9FED3C6B2B
:103EA0000CF1010C27EE067B5FFA8CF2A242F7D3ED
:103EB00030EE070B0A222846FCEEC07BB8EE678B7B
:103EC00017EE901A30EE488BFFF76CFF0F2C4FF077
:103ED0002E03B2EE046B064628BF0F248DF808307F
:103EE0000DF1090302AA611E53FA81F128EE060BB7
:103EF000FCEEC07BCDED017A9DF8043007EE903AE0
:103F00003033B8EEE78B02F8013F914230EE488B38
:103F1000ECD12B68013402A928465B68E2B29847CD
:103F2000304606B0BDEC028B70BD2B6803221A49E7
:103F30005B6806B0BDEC028BBDE8704018470368B3
:103F400003221649F4E7B1EE400B0123A0E7036812
:103F500003221349ECE730EE070B0A222846FCEE59
:103F6000C07B17EE901A06B0BDEC028BBDE8704026
:103F7000FFF718BFAFF30080FFFFFFFFFFFFEF7FEA
:103F8000000000E0FFFFEF41000000E0FFFFEFC195
:103F90009A9999999999B93F3807002034070020D8
:103FA0003007002000B970472DE9F84F0121814604
:103FB000214C224D224E54E8003F2A68306844E8E4
:103FC0000013002BF7D11F494B684FF47A7BDFF8C1
:103FD00078A01B1A01270BFB02F8DAF80020A3FBDC
:103FE00002325A4594BF9044D84454E8003F2A68AE
:103FF000306844E80073002BF7D14B68DAF800C052
:104000001B1A0BFB02F2A3FB0C3CBCF57A7F94BF9E
:10401000624402F57A72A2EB0802B2F57A7F06D307
:10402000B9F1010908F57A78DFD1BDE8F88F01F020
:10403000BFFA0449D9E700BF48100120441001200D
:1040400040100120001000E030100120362816D862
:104050000201104B03EB00109B5810B4C2685C685F
:10406000144205D061B95DF8044BC3F8882070474D
:10407000836851B1084A5DF8044B1A607047704775
:104080005DF8044BC3F884207047044A5DF8044B84
:104090001A60704728C8002038F00100383001004D
:1040A000362829D8164B0201012903EB00109A5833
:1040B00010B45368C4680ED004290CD023EA04035A
:1040C00053608368A9B1022917D003290CBF0D4A98
:1040D0000D4A1A6007E0234301295360836808D022
:1040E00040F638021A60436815225DF8044B1A60E6
:1040F000704738221A60F6E77047044A1A60F2E700
:1041000028C80020383001003800010038F00100D4
:1041100008B5FEF76BFEFEF7BBFE01F049FAFAE7C1
:10412000844641EA000313F003036DD1403A41D3C2
:1041300051F8043B40F8043B51F8043B40F8043B81
:1041400051F8043B40F8043B51F8043B40F8043B71
:1041500051F8043B40F8043B51F8043B40F8043B61
:1041600051F8043B40F8043B51F8043B40F8043B51
:1041700051F8043B40F8043B51F8043B40F8043B41
:1041800051F8043B40F8043B51F8043B40F8043B31
:1041900051F8043B40F8043B51F8043B40F8043B21
:1041A00051F8043B40F8043B51F8043B40F8043B11
:1041B000403ABDD2303211D351F8043B40F8043BB1
:1041C00051F8043B40F8043B51F8043B40F8043BF1
:1041D00051F8043B40F8043B103AEDD20C3205D3C1
:1041E00051F8043B40F8043B043AF9D2043208D0B9
:1041F000D2071CBF11F8013B00F8013B01D30B882B
:1042000003806046704700BF082A13D38B078DD008
:1042100010F003038AD0C3F10403D21ADB071CBFDA
:1042200011F8013B00F8013B80D331F8023B20F844
:10423000023B7BE7043AD9D3013A11F8013B00F87D
:10424000013BF9D20B7803704B7843708B78837005
:104250006046704701F1FF3C70B56646002400E0FF
:104260000134B0FBF2F502FB1503092B03F1370E05
:1042700003F130035FFA8EFE98BF5FFA83FE90422F
:10428000284606F801EFEBD2631C0022C818CA5476
:104290007CB162461CF8015F10F8016DA1EB0C03C4
:1042A00002328CF80060013B521A057023449A4296
:1042B000EFDB084670BD00BF72B6EFF305834F4CCD
:1042C000C4F88430EFF308824FF0E0234C4E4D4D9C
:1042D000D3F8280DD3F82C1DC4E92201D3F8341DDE
:1042E000D3F8383DC4E924139369C4F89830D369EE
:1042F000C4F89C3000F0DCF884ED280A01F034FCAE
:104300000B214FF0FF32C4F8A4000B46C4F8801014
:104310003D49301D5A40202402F00103013C01FBBD
:1043200003F383EA5202F7D1A84202D0736806462B
:10433000EFE7324BC3F8A820BFF34F8F4FF0E023D5
:104340002F49324AC3F8701FC3F8702FBFF34F8F45
:10435000BFF36F8F2E4A02252E48D36E2E4943F4A9
:104360004053D3660560D3692C4823F07F0343F0A4
:104370004003D3610B6883423DD8264D00214FF0A6
:10438000E0234FF0FF3229600126C5F808112449C7
:10439000C5F80011C5F80861C3F88021C3F884216D
:1043A000C3F88821C3F88C21C3F8902101E000F004
:1043B00071F9D5F80C31002BF9D00134C5F80C6136
:1043C0004F2CF4D9174B022017494FF00042C1F887
:1043D00040015A63D5F80C313BB9144814490D4AD1
:1043E0000163D2F80C31002BFAD04FF0E023114AD0
:1043F000C3F80C2DFEE701F087F9BEE700FF272088
:1044000080FF2720A8FF27202083B8EDA0FF2720CA
:1044100000C00F400040084084D60020803DCD0BF6
:10442000009F240000900D4000002E4000800F40AF
:10443000F100AD0B0400FA050A490A6838B108B565
:1044400013180948834204D810460B6008BD104673
:10445000704739F08DFB0C234FF0FF32036010469C
:1044600008BD00BF38D7002000002820002070477A
:104470004FF0FF30704700BF4FF4005300204B60F7
:10448000704700BF012070474FF0FF30704700BFFA
:1044900030BFFDE70078B0FA80F04009704700BFF8
:1044A00001230370704700BF30BFFDE7FFF704BF73
:1044B000124AD2F880305B07FBD5D2F88030104822
:1044C000C3F30B230F4990ED007A07EE903A91ED7C
:1044D000006AB8EE477A0C4AF8EEE77A0B4BD2ED59
:1044E000006A77EEC77A93ED007AB8EE477A67EE06
:1044F000867A87EEA60A37EE400A704700810D40A3
:10450000400F0120480F01204C0F0120440F0120D3
:10451000836BF0B41BB1536843F40043536072B62D
:10452000446B3CB31A4B2260D3F8B0410C421DD10E
:10453000184E776804E07468E41BB4F5166F0BD26C
:10454000D3F8404144F48044C3F84041D3F8B85113
:10455000D3F840416404EED50D4007D10C4CC0E9BE
:104560000225D4F8B0310B43C4F8B031426362B6CF
:10457000F0BC7047064DC0E90224D5F8B0310B43BA
:10458000C5F8B0310263426362B6F0BC704700BF49
:1045900000002E40001000E070B5056B9DB106468E
:1045A0002A46002403E012680134012A0CD0536823
:1045B00013F08003F7D032632CB12846B36B2D681B
:1045C0009847013CF9D170BDC6E90C33F4E700BF50
:1045D00030B4D9B91F4C204B0021204A01254FF09F
:1045E000011099601D60C4E9023180245C60C2F84A
:1045F000BC01D2F8B0311A482B43C2F8B031016087
:10460000D2F8B031002BFBD130BC70470904154BF8
:10461000104C012541F080019860104A596000F566
:1046200080511D60D96000F50051A364196100F547
:10463000405100F58040596100219861E164D2F851
:10464000B03143F48033C2F8B031D2F8B031002B2E
:10465000FBD1C0E700000020E0EA002000002E406F
:104660008407012000EB0020084901220B7802FAA0
:1046700000F023EA0000087030B9054AD2F848314A
:1046800023F08003C2F84831704700BF6E1001204C
:1046900000002E402DE9F04F974C83B0D4F84471C0
:1046A000FB07C4F8447153D5D4F8AC21002A4AD092
:1046B000924EDFF860A2DFF87492DFF874B2DFF890
:1046C0007482C4F8AC21D6E90A20D4F8403143F40E
:1046D0000053C4F84031D4F840319D04F5D5D4F8E6
:1046E000403123F40053C4F840314FF00113C4F8B3
:1046F000B431D4F8B45115F00115FAD193B284460F
:10470000CAF80050B3F5086F00F0CF8100F2DB80EB
:1047100040F202318B4200F0E78100F29A80822B56
:1047200000F0CB81B3F5817F40F08A8010F0780FE4
:1047300083B200F003824FF00113C4F8C031D4F803
:10474000AC21002ABDD16C4AD2F8BC31002B42D139
:104750007E0616D5684BD3F8AC21C3F8AC21D3F84C
:10476000BC21C3F8BC21D3F8B041002CFBD14FF0E1
:10477000FF32C3F8B421D3F8843100F027FD604B39
:104780001C60FC0103D55F4B1B6803B19847B8015F
:1047900003D55D4B1B6803B19847790708D5564B85
:1047A000D3F8843113F4007347D0584B01221A70A8
:1047B000514BD3F848311A060AD53B0608D5544A5E
:1047C00013782BB1013BDBB21370002B00F0728227
:1047D00003B0BDE8F08F4F49C2F8BC31086803420E
:1047E00040F0D181464A14681C40B1D05FEA1448B9
:1047F00010D0424E4FF0010998FAA8F5B5FA85F5A8
:1048000006EBC51009FA05F54030FFF7C5FE38EA9A
:104810000508F1D1A4B2002C9AD0384E4FF001080F
:1048200094FAA4F5B5FA85F506EBC51008FA05F576
:10483000FFF7B2FEAC43F3D18AE7344A1370B7E70F
:10484000802B7FF478AF344802210580FFF7C0FE4B
:1048500075E7B3F5A06F00F00B81A3F5D063012BD2
:104860003FF669AF2D4B5D68002D3FF464AF1FFA32
:104870008CFC4FEA124E04E01D690C33002D3FF40E
:104880005AAF1A887245F7D15A886245F4D14FEA77
:104890001E22032A00F0A5811A89000C824228BF3B
:1048A0000246BEF5007F40F0A181184B1C491878E4
:1048B0001C4B0192002818BF19461B48FFF730FC1B
:1048C000194D019AE1E142F221218B427CD033D98A
:1048D00042F221318B4200F081804FF6C0018B42C1
:1048E0007FF429AF10F47F4F83B27FF424AF43F4F9
:1048F0006E4363F30F0CB5E700002E40000000206C
:1049000088070120581001205C100120741001203C
:104910007510012084070120BC0E012088D30020DF
:10492000A81E00600C1F0060000020207C070120F2
:104930005DCFC6B8C0012E40B3F5106F66D042F20D
:1049400021018B427FF4F7AE030C072B7FF4F3AE0B
:10495000B24BB349F560D960B249B360C3F808906F
:10496000C1E9002001221A60AF4A5A60AF4A1A61B9
:10497000D4F8B01141F00101C4F8B01102F5805132
:1049800002F5005259619A61D4F8B031002BFBD185
:10499000A74AF36493600123B264136048F2800372
:1049A00053604FF00113C4F8BC31D4F8B03143F474
:1049B0008033C4F8B0314FF48033CAF80030D4F8F3
:1049C000B031002BFBD1BAE680B238B9994BC2F3B3
:1049D00007421968984B1960984B1A70944B002243
:1049E0009A60F2640122B3641A6080225A604FF028
:1049F0000113C4F8BC31D4F8B03143F48033C4F8A7
:104A0000B031D4F8B031002BFBD198E6C2F30742A5
:104A10008B4B1A708B4BC4F8C8318B4BC4F8CC311C
:104A20008A4BC4F8D03100F0D3FB80222946884855
:104A300036F0B6F8874B8022C6F8A0B0C6F8E03052
:104A40007B4BF5645A600122B3649D601A604FF09D
:104A50000113C4F8BC31D4F8B03143F48033C4F846
:104A6000B031CAF80050D4F8B031002BFBD166E663
:104A70006F4B0121F564196080219D60B36459601A
:104A80004FF00113C4F8BC31D4F8B03143F4803393
:104A9000C4F8B031D4F8B031002BFBD1130C5B0655
:104AA00043F08073C4F8543149E6654B01216A48EC
:104AB0001B780370FFF78CFD41E683B210F078009D
:104AC0007FF439AE03F07F0258F82210624A10805A
:104AD000180600F19E80CB0701D501231370022137
:104AE0005D48FFF775FD2AE610F0780F83B27FF47A
:104AF00022AE03F07F0213F0800F58F8223014BF6B
:104B000043F4803343F0010348F822300022484B3D
:104B1000F2649A600122B3641A6080225A604FF0F6
:104B20000113C4F8BC31D4F8B03143F48033C4F875
:104B3000B031D4F8B031002BFBD100E603F07F0296
:104B400013F0800F58F8223014BF23F4803323F081
:104B5000010348F822300022354BF2649A600122AA
:104B6000B3641A6080225A604FF00113C4F8BC315C
:104B7000D4F8B03143F48033C4F8B031D4F8B03154
:104B8000002BFBD1DBE50020086026490C88486833
:104B900042F221018C427FF425AE80B200287FF4DE
:104BA00021AE2E492E4C03C9A18086284FEA11411F
:104BB0002060A1717FF416AE72B62A48017841F0E8
:104BC00008010170D2F848110D0605D48020014378
:104BD000C2F84401C2F8481162B6234A502111704C
:104BE00000E6000C2A78824228BF0246BEF5E06F3C
:104BF00044D11E4B1E4D18781E491F4B01920028B0
:104C000018BF19462846FFF78BFA07236B70019AE5
:104C10003BE0C9033FF561AF61E700BF00EB002057
:104C20007C170120A0EC0020800007007C270120D9
:104C3000E0EA0020441001205410012072100120ED
:104C4000731001200200CC00C80002000200C8005E
:104C5000800000201993D574BC0E01207C07012030
:104C60004C1001206E1001207510012074100120DD
:104C7000000020200C1F0060A81E00602946104D77
:104C800001922846FFF74CFA019A25F01F031544BC
:104C9000BFF34F8F4FF0E021C1F8703F20339D42AA
:104CA000FAD8BFF34F8FBFF36F8F05481146FFF758
:104CB0008FFC44E50320FFF7D7FC45F0DDFE00BF85
:104CC000000020202DE9F0471F46831E022B01D94A
:104CD000BDE8F087DFF84C9015460C463C2209EB06
:104CE000C01806464FEAC01A002108F10400240447
:104CF00035F056FFB5FA85F20123520944EA4274B1
:104D000049F80A40C8F83870C8F80830002FDFD0DA
:104D1000034AB34011680B431360BDE8F08700BF3E
:104D200088070120000000202DE9F0470D46811E74
:104D3000022901D9BDE8F087C701DFF84C909246FF
:104D4000044640373C2200211E4609EB07082D048B
:104D500008F1040035F024FFBAFA8AF2520945EA54
:104D6000427249F807200122C8F83860C8F80820C4
:104D7000002EDFD0034B10341968A2400A431A609A
:104D8000BDE8F08788070120000000201204816040
:104D9000C36101F5405342F0800210B40124426027
:104DA00001F50052046001F5805401F58041C460B2
:104DB00081615DF8044BC0E904237047831E0A46F5
:104DC000022B00D97047064B00F110014FF0010C87
:104DD00003EBC0100CFA01F14030FFF799BB00BFA4
:104DE00000000020831E0A46022B00D970470121D3
:104DF000024B814003EBC010FFF78ABB000000208C
:104E000040687047124A134BD2F8200220F07F40CE
:104E1000984210B584B002D200EB800040000E4CE6
:104E200001A90A22FFF716FA01A90023204611F86A
:104E3000012B01333AB10A2B20F8022FF7D11623A8
:104E4000237004B010BD5B00DBB2237004B010BD52
:104E500000441F4080969800F8E4002000F0CCBA8F
:104E600000F09CBA00F0BCBA00F058BB00F02EBBBA
:104E7000F8B5144C4FF0E025134E4FF4003204EB1C
:104E80004024124F06EB40160346C5F88C212146FC
:104E90003A883046FFF77AFF3B882344BFF34F8FB1
:104EA000C5F85C4F2034A342FAD8BFF34F8FBFF34D
:104EB0006F8F03203146FFF795FF4FF40033C5F89D
:104EC0000C31F8BD8000202020EB00206010012074
:104ED000244B2DE9F0411C884368C569C3F30E4398
:104EE000E41A002C24DD204920480A780078D3B247
:104EF0001F4E82421F4807D010F8038036F8187002
:104F0000C7F50072944218D90133002226F81540E3
:104F1000082B194E88BF134626F8152098BFDAB221
:104F2000C554164B0A701A6814441C60BDE8F08121
:104F30002846BDE8F041FFF79BBF07EB482010492A
:104F400022462744084401EB4521FFF7E9F80B4AC4
:104F5000284626F8187013682344BDE8F041136012
:104F6000FFF786BF601001206C1001206D1001203A
:104F7000140F0120340F0120240F0120100F0120F5
:104F8000800020201D4B1A78002A36D102F0FF0342
:104F90001B4A12788AB32DE9F0411A4D2A8852B380
:104FA000194EC2F50068194F3278194C07EB4217B9
:104FB00004EBC224424638462146FFF7E7FE04EBE5
:104FC0000802BFF34F8F4FF0E023C3F8704F203437
:104FD000A242FAD8BFF34F8FBFF36F8F0420394638
:104FE000FFF7ECFE33780133DBB2032B88BF0023DD
:104FF000337000232B80BDE8F081704771100120D1
:1050000073100120621001207010012020EC00209C
:10501000801020202DE9F04F85B0CDE90110002946
:1050200000F0BF800023604CDFF89881DFF898A182
:105030005E4F009301235E4A23705E4B1978B8F8E7
:10504000003002EB4119002B40F0A7801E461D46A0
:105050009B464846FFF7D4FE10F0800000F08C809D
:10506000BFF34F8F9AF8003084F800B005B93E685E
:10507000002B7DD13B689B1B782B00F287804E4B29
:105080001B78002B74D000F093FA0122B8F800309E
:1050900015462270002BDCD0464AC3F5006011781B
:1050A0001A4600EBC120454DC9022844019D954296
:1050B00017D20393DDE901512A46FFF731F8039B2C
:1050C0004FF040425B1BA8F800303D4BC3F88420F2
:1050D000BFF34F8F009800232844237005B0BDE82C
:1050E000F08F364BCD180299FFF71AF800234FF4D2
:1050F000006229464846FFF749FEBFF34F8F05F18E
:10510000200205F50063934234BF012340234FF092
:10511000E02205EB4313C2F8705F2035AB42FAD1B1
:10512000BFF34F8FBFF36F8F04204946FFF746FE52
:10513000204A13780133DBB2032B84BF00231D4ABE
:105140001370B8F80030019AD11A009A1A440191EC
:105150000092029A1A4400230292194AA8F80030D9
:10516000C2F88430BFF34F8F237000297FF462AF01
:10517000009805B0BDE8F08F4FF400620D4B8AF83F
:10518000000019781346A8F800208AE70123009848
:105190008AF8003005B0BDE8F08F1A46C3F500600C
:1051A0007FE70198E5E700BF71100120441001205E
:1051B00020EC0020701001207310012080102020AE
:1051C00000002E40621001206F100120704700BFC8
:1051D0002A4B002180222A4870B51B780024294DD3
:1051E0008B42294E0CBF40234FF400732B80338039
:1051F00035F0D6FC254A2146254B14704FF48072B9
:1052000024481C8035F0CCFC234A1021234B02207B
:10521000C2E90044C2E90244214AC3E900441470CF
:10522000204AC3E90244204B1C70234614602246E6
:10523000FFF77AFD2246318803201C4BFFF742FD21
:105240002346012229880420FFF76EFD2046013401
:10525000FFF70EFE082CF9D1154B4A221548002104
:10526000154C0460C3F88410C3F88020D3F848219B
:1052700042F08072C3F8482170BD00BF7410012055
:1052800020EC00206410012060100120701001202B
:105290006210012020EB0020140F0120240F0120B8
:1052A0006C100120100F01206D100120512F000003
:1052B00000002E4058100120053000002DE9F04F6D
:1052C0004FF0E0234FF40032DFF8C8A083B0C3F8FA
:1052D0008C218B469AF8004000294FD08046E4B2DA
:1052E0000027DFF8B490264BABEB070225491B786B
:1052F000A34204F101043FD0092C234B404628BFB0
:1053000000241E5D39F816C00CEB462319441F4BD0
:1053100033F81650A5EB0C05AA421CD20CEB462C18
:1053200018491B4C61440192FEF7FAFE216839F8D6
:1053300016505846019AA1EB0B012A44394429F82A
:10534000162021604FF0E0234FF40032C3F80C2107
:1053500003B0BDE8F08F2A462F44FEF7E1FE0C496A
:10536000E3B230460A68A844521B0A608AF800304B
:10537000FFF77EFDBB45B6D83846E3E70846E1E7D0
:105380006C10012080002020340F0120140F012018
:10539000100F01206D100120240F01200B4B0C4A2F
:1053A00012781978D3B28A420DD0013309480A4ADB
:1053B000092B0A4928BF0023C35C31F8131002EB04
:1053C0004323585C70474FF0FF3070476C1001204A
:1053D0006D100120340F012080002020240F0120B7
:1053E000044B10B51C680CB1204610BD00F0E0F86D
:1053F000204610BD100F01202DE9F84F144E154D19
:1054000033782A78934221D0DCB2DFF85090DFF86D
:1054100050B0DFF85080104F0134082C5FFA84FA46
:1054200001D90024A24619F80400DBF8003038F84E
:10543000102037F81010521A9B1ACBF80030FFF7E3
:1054400017FD86F800A02B78A342E5D1BDE8F88FC0
:105450006D1001206C100120240F0120340F012059
:10546000100F0120140F012000B583B001210DF1B0
:105470000700FFF723FF20B19DF8070003B05DF898
:1054800004FB4FF0FF30F9E7094B00B583B01B7800
:105490008DF807003BB101210DF10700FFF7BAFDC0
:1054A00003B05DF804FB03F0FF0003B05DF804FBFC
:1054B00073100120044B1B7803F0FF020BB1FFF7C0
:1054C000A9BD1046704700BF731001202DE9F041BF
:1054D0000024DFF8448001230D4D27460D4E88F847
:1054E0000030337828462035A34204F1010405D06A
:1054F000FFF786FC030658BF07F50067042CF0D1C0
:10550000BFF34F8F0023384688F80030BDE8F081A4
:1055100020EC002070100120711001202DE9F843CB
:105520001D4B1B7813B11D4D2A880AB9BDE8F883BD
:105530001B4EC2F500691B4933784A461A4C01EBF1
:1055400043181A4F04EBC324012340463B70214605
:105550000023FFF71BFC04EB0902BFF34F8F4FF052
:10556000E023C3F8704F2034A242FAD8BFF34F8F24
:10557000BFF36F8F04204146FFF720FC33780133DF
:10558000DBB2032B88BF0023337000232B80BFF3D3
:105590004F8F3B70BDE8F88373100120621001202B
:1055A0007010012020EC00208010202071100120BC
:1055B0002DE9F843324E337863B1324F3A784AB925
:1055C0000122D9073A7044D49A0726D400225B07F7
:1055D0003A7001D4BDE8F8832B4B1A68002AF9D041
:1055E000EFF30582002AF5D1EFF3108572B6186843
:1055F00000283BD0254C2178002937D10122227088
:1056000042691A60002A38D0916105B962B6002556
:105610008368457798472570DCE7DFF87C8098F849
:105620000020002AD2D00025DFF870902B4659F8D0
:1056300023400135236820461B69984710B16369F0
:105640009B68984798F80020EBB29A42EFD83378DD
:10565000BCE7FFF7C5FE68B90D4B1B780BB9337873
:10566000B2E7337803F0FE033370ADE7002DB1D11C
:1056700062B6AFE700F08AFAEEE7064B1A60C4E7BD
:1056800011E500206810012020FC00206610012098
:105690007C1F00602CFC00206710012030FC0020E3
:1056A00070B5EFF3108272B60C4C206880B10C4ECE
:1056B00000254369236073B19D6102B962B68368B6
:1056C00045779847EFF3108272B620680028F0D132
:1056D00002B962B670BD3360EFE700BF28FC00205E
:1056E00024FC0020FFF7DCBF0449054A4968054B4C
:1056F0001960136801331360704700BF001000E0A9
:105700004410012040100120A249A34B88422DE9FA
:10571000F047A24C5E699A69D4F80C801BD9A04B63
:10572000984240F20281C31A9E491B0AA1FB03134F
:1057300040F22761DB0903EB830303EB830303F2EE
:10574000E2438B4228BF0B46A3F54877964BA3FB59
:105750000737FF0804E0954FB8428CBF0E27062795
:105760008D4908F01F09D1F88030B94543F0C003D6
:10577000C1F880300CD228F01F08A1F5F82148EAC2
:105780000708C1F80C800B68002BFCDA08F01F0931
:1057900016F0007324D186490C698649A14300F0B4
:1057A000EA8082F4805134464FF4805514F0605FF3
:1057B00004D026F060561E43774B5E6111F4405FC3
:1057C00007D022F4405274492A438A618B6C1A072D
:1057D000FCD446F00076704A5661936C9B06FCD46C
:1057E000754CA04200F2CE804FF0010C014663469A
:1057F00003FB011203F1010E0CF10105A24218D8BE
:10580000BEF1080F4FF0010340F08D80BCF1040F92
:1058100000F291800A18A24200F2A48005FB00F178
:10582000AC4603F1010E03FB01120CF10105A2428B
:10583000E6D90CF1FF318C0286EA81215F481044E1
:105840005F4A90427FD9DFF8A4A16C225D48584D91
:10585000B0FBFEF0D5F800E0B0FBFCF0DFF890C143
:105860000EEA0C0CD44509D042F400524FF4805C8F
:10587000C5F800C02A602A68002AFCDA464A156981
:1058800005F007059D4203D01361936CDD03FCD442
:1058900011F4E05F09D026F4E05604F4E0543E4AE7
:1058A00026435661936C9907FCD44749474A014403
:1058B00091423CD8464BC909A3FB0131090B4B1E51
:1058C0001B0286EA030212F4407F06D026F44076DB
:1058D00003F44073304A334353612F4A536923F032
:1058E00000735361936C9B06FCD43A4B4F45A3FB6A
:1058F00000234FF0FF324FEA9343B0FBF1F1B2FBCC
:10590000F3F3354A1060354A1160354A136008D206
:1059100028F01F08214A48EA0707D7601368002BC0
:10592000FCDABDE8F087734662E7122718E74FF408
:1059300040730421C5E70CF1FF31204807238C0296
:10594000104486EA8121274ADFF8A8A0A2FB0020A4
:10595000020D2548362A38BF362202FB00F042EA03
:105960000A0A74E74FEA8C24002386EA8C214FF060
:10597000010EAC4662E71D4686F0C05411464FF05A
:10598000C05313E700244FF0010C02463146234672
:10599000E64653E700A4781F00C00F40000008400F
:1059A0000046C32323B24C001F85EB5100366E0125
:1059B00000800D4040300080FFB19F26808D5B004D
:1059C000FF7EF64D00643F4D7FD1F0087F17B42C69
:1059D0009F10E50083DE1B4384D6002080D6002084
:1059E00030100120819F5E16001BB7006C200080E4
:1059F0007F3001800020008000230F2248F2B82C65
:105A0000194610B54FF470444FF4806EA0F88C41E5
:105A10004FF46044A0F88E210A46A0F89031B0F807
:105A200088319BB243F0F003A0F8883101EB4103C9
:105A3000013100EB431304299C80A3F806E05A844B
:105A40001A865A805A81A3F80EC05A82DA825A8383
:105A5000DA83EBD1B0F888319BB243F00F03A0F8A2
:105A60008831B0F888319BB243F47063A0F8883174
:105A700010BD00BF374B384A996F384841F47F0159
:105A800070B5996741F20106D3F8801045F6C0550C
:105A900043F226040A43C3F88020FFF7ADFF00F568
:105AA0008040FFF7A9FF00F58040FFF7A5FF00F554
:105AB0008040FFF7A1FF0022A0F503104FF00F0E6A
:105AC000114600EB42134FEA421C01329981042A2D
:105AD0005981A3F80EE09E82DD8020F80C10198217
:105AE0009C81EED100221E484FF00F0E41F20106BC
:105AF000114645F6C05543F2260400EB42134FEA27
:105B0000421C01329981042A5981A3F80EE09E8239
:105B1000DD8020F80C1019829C81EED10022114802
:105B20000F2641F20105114645F6C05443F2260EF8
:105B300000EB42134FEA421C01329981042A598139
:105B4000DE819D82DC8020F80C101982A3F80CE025
:105B5000EED170BD00C00F40000003FC00C03D400E
:105B600000001E4000401E40074A506A936A1946D2
:105B70008446506A936A9942F9D18445F7D1DB0B88
:105B800043EA4040704700BF00400D40704700BFEF
:105B900008B5D0E900325BB1BAB10F4BA3FB0213D9
:105BA000DB0803EB4303B2EB83030AD1012008BDFA
:105BB000094BA3FB0213DB0803EB4303B2EB8303A4
:105BC00001D0D21A4260F02AF0D837F0D1FF1C225F
:105BD000034600201A6008BDABAAAAAA70B5044605
:105BE00038B319B1B2FA82F67609A2B9206800B3C7
:105BF0006268F2B1184B194902FB03F3B1EBB30F22
:105C000017D3A368E3B90022012322606260A26077
:105C1000E260184670BD1D46049BC0E90012C360D7
:105C2000FFF7B6FF03460028F3D06DB901231846ED
:105C300070BD37F09DFF162200230260184670BD2C
:105C4000002134F0ADFFDEE7626831462068A560D0
:105C500034F0A6FF0123DCE7ABAAAAAA55555515D7
:105C600003460846194632F0B3BF00BF2DE9F04F96
:105C7000D04FD14D3968DFF89093D04B8E68DFF864
:105C80004C83DFF888B3002483B00122C5E9009477
:105C9000C5E90244C5E90444AC6105F11C001A7071
:105CA00001F094F83B682E624FF0FF3A5B68C8F849
:105CB0000090C8E90144C8E90344C8E90544C5F8AF
:105CC00024A008F11C00C5F800B0019301F07EF893
:105CD000019BBB4EC8F820303B68C6F80090C6E96F
:105CE0000144DB68C8F824A0C6E90344C6E90544BA
:105CF00006F11C00C8F800B0DFF8FC92019301F037
:105D000065F8019BDFF80883C6F800B0C6E9083AD9
:105D1000A9F10406484608F1140A12F043FBC6E94B
:105D20001F44C6E9214429467467A6F8784049F81B
:105D3000048C4846C6F804A012F0CEFAA14C2046C6
:105D400012F030FBA04B44F8083C143323600023CE
:105D5000C4E91E33C4E920332367A4F8743044F83F
:105D6000043C20469949083C12F0B6FA984DA5F13A
:105D70000409284612F016FB0023C9E91F33C9E9BC
:105D800021338F4945F8048C2846C9F804A0C9F886
:105D90007430A9F8783012F09FFADFF868B2ABF1EE
:105DA0000405584612F0FEFA0023C5E91F33C5E981
:105DB000213383494BF8048CC5F804A058466B671F
:105DC000A5F8783012F088FAD9F81030814DDFF854
:105DD00044B2A66743F40053C9F810303B68C9F8D1
:105DE000746000249E68AC61C5E900B4C5E9024452
:105DF000C5E9044405F11C0000F0E8FFDFF8E88184
:105E00003B682E624FF0FF39DFF80CA25B68C5F8E3
:105E100000A0C5F82490C8F800B0C8E90144C8E95A
:105E20000344C8E9054408F11C00019300F0CEFFCB
:105E3000019B694EC8F820303B68C6F800B0674F38
:105E4000D3F80CB0C8F82490C8F800A0C6E9014403
:105E5000C6E90344C6E9054406F11C0000F0B6FF9C
:105E6000DFF8B881C6F800A0C6E908B9384612F0D4
:105E700099FA294608F114093D1FC5E91D44C5E9F1
:105E80002044C5E9224447F8048C384685F87C4014
:105E9000C5F8049012F070FA514C204612F082FAC4
:105EA000504B44F8083CA4F108061433B3600023B7
:105EB000C6E91E33C6E92133C6E923334A4986F8C9
:105EC00080302046736012F057FA484F3C1F384626
:105ED00012F068FA0023C4E91D33C4E92033C4E991
:105EE00022333D4947F8048C3846C4F8049084F8BE
:105EF0007C3012F041FADFF808A1AAF104075046FD
:105F000012F050FA0023C7E91D33C7E92033C7E96F
:105F1000223331494AF8048CC7F80490504687F878
:105F20007C3012F029FA324922690B68B56742F4D5
:105F300000520133226165670B6003B0BDE8F08F4A
:105F40002C4B73602C4812F069FA26F0C7FE2B4BDD
:105F50007B602B4812F062FA26F0C0FE274B63608C
:105F6000224812F05BFA26F0B9FE244BB3601C48BD
:105F700012F054FA26F0B2FE204B6B60174812F074
:105F80004DFA26F0ABFE1B4B6B601E4812F046FA32
:105F900026F0A4FE174BC9F804300D4812F03EFA63
:105FA00026F09CFE134BA360064812F037FA26F049
:105FB00095FE00BFE8DC0020A0FC00200EE50020DC
:105FC00078FC0020ECFE0020343B002050FC002038
:105FD00078FF002018FD0020F0FC0020D0020120F6
:105FE00020010120EC3C0020C8FC0020B001012071
:105FF000B0FE00208C430020900001209C43002034
:1060000040020120040001204C3D0020D03300203C
:106010005C3B00208C3D002010340020143D00200B
:10602000074A1368591C116003B1704700B583B06B
:106030000190FFF71BFE019803B05DF804FB00BF61
:10604000B0FE0020114A1368591E022B10B50446F9
:10605000116001D0204610BD0D481BF0D7FF0D4840
:106060001BF0D4FF0C481BF0D1FF0C481CF00AF8C1
:106070000B481CF007F80B481CF004F8204610BD34
:1060800026F0B4FF26F0F0FFE4E700BFB0FE0020EA
:106090008C00012074FF002000000120CC020120B0
:1060A000AC0101203C020120704700BF10B504463E
:1060B00026F00AFD204610BD044A0B6812680360F2
:1060C000934202D01A6801321A60704730FE0020F5
:1060D0000160704710B5054C206800B110BD024644
:1060E0000349204628F058F9206810BD38FE0020EA
:1060F00050110020004870475011002070B505462F
:106100004068E8B1AB68CBB1304E002403E0AB6827
:106110000134A34211D950F82420002AF8D0536842
:10612000591E012B5160F2D113685B68B3421046CF
:1061300037D126F0C9FC6868E9E708B126F0C8FC49
:10614000E868E8B1AB68CBB1204E002403E0AB684F
:106150000134A34211D950F82420002AF8D0536802
:10616000591E012B5160F2D113685B68B34210468F
:1061700019D126F0A9FCE868E9E708B126F0A8FCE7
:106180002B6963B10024185910B126F0A1FC2B69CA
:106190000434182CF7D113B1184626F099FC284680
:1061A00070BD9847C7E79847E5E726F01FFF26F040
:1061B0005BFFC0E726F01AFF26F056FFDBE7013150
:1061C00002D126F0A1FEFAE726F088FD2D4100005D
:1061D00038B50A4B05681B689D42044604D02B68FD
:1061E0005A1E012B2A6001D0204638BD2846FFF7F1
:1061F00085FF284626F068FC204638BD30FE00208A
:106200000F4B1A680B68934270B50E46044602D0D5
:106210001868013018602568AA4204D02A68501E08
:10622000012A286002D02360204670BD2846FFF76F
:1062300065FF284626F048FC33682360204670BD81
:1062400030FE0020002A00F0E5802DE9F04F0C68B8
:1062500083B00546164624B9A94B1C6801341C605E
:106260000C60AB68671E013BBB425CD204F10308C3
:106270006FF06043984534BF4FEA880A4FF0FF3A09
:106280005046D5F804B027F05FFB8146A86868B196
:106290006B6803EB800CA9F10402043BACF1040C25
:1062A00053F8041F42F8041F9C45F9D1804507D9D3
:1062B000A8EB0002920009EB8000002134F070FC92
:1062C0005046D5F80CA027F03FFBD5F808C0034690
:1062D000BCF1000F0CD0EA6802EB8C0E011F043AEF
:1062E000AEF1040E52F8040F41F8040F7245F9D1D3
:1062F000E04509D9A8EB0C0203EB8C0092000021C9
:10630000019334F04DFC019BEB60C5E90198BBF1B2
:10631000000F02D0584626F0DBFBBAF1000F02D086
:10632000504626F0D5FBD5F80480736858F827C08E
:1063300001337360BCF1000F43D0724A1168002929
:1063400038D06F480EE0D2F804E0DEF8003023B910
:10635000036801330360CEF800309C4269D052F8E4
:10636000081F39B30B681BB90368013303600B6066
:106370009C42E8D151680B6823B9614A1368013324
:1063800013600B605C1E58F824309BB130460DF052
:10639000D9F9814658F82400D9F804300133C9F8F6
:1063A000043043685A1E012B426068D048F824909C
:1063B00058F827C0DCF804305A1E012BCCF8042012
:1063C0002DD0AA6848F827600AB30024EB68DFF8EC
:1063D0003881274604E0AA680F600134A24216D92A
:1063E00053F82400A60003EB84010028F5D042688E
:1063F00002F1FF3C012AC0F804C0ECD103685B68DD
:10640000434508D126F060FBEB689919E3E703B038
:10641000BDE8F08F70479847EB689919DBE7DCF827
:106420000030394A5B689342604626D126F04CFB27
:10643000C7E70B6823B9324A1368013313600B6056
:106440005C1E58F82430002BB4D0304604F0B6FE61
:10645000814658F82400D9F804300133C9F80430D3
:1064600043685A1E012B4260A0D10368264A5B682C
:1064700093420BD126F028FB98E79847A1E70368E1
:10648000214A5B689342F5D098478FE798478DE79C
:1064900026F0ACFD26F0E8FDBEE726F0A7FD26F0CD
:1064A000E3FD8EE726F0A2FD484626F011FB27F01B
:1064B000EDF926F09BFD26F0D7FD77E726F096FD57
:1064C00026F0D2FD72E7013115D126F01DFD013114
:1064D00005D126F019FD013103D126F015FD26F076
:1064E000FDFB26F0FBFB26F0BFFD26F0F7FB01319C
:1064F00003D126F009FD26F0F1FB26F0EFFB00BFEB
:1065000034FE0020941000202D4100002DE9F041C0
:10651000374C2368BFF35B8FDB0707460E461546F3
:106520004AD5344B1C68002C3AD033489C460BE0CB
:1065300023B90168013101600B461160013B9D42A6
:1065400043D05CF8084F5CB3236823B9026801327A
:10655000026013462260013BDCF804209D42136870
:10656000E6D1002B3BD0013BFA6852F8251051B11F
:10657000A6B13368214A5B689342304635D1BDE805
:10658000F04126F0A1BA7168481C7060581C42F8AE
:10659000256003D00231716042F82360BDE8F081CC
:1065A000FB6853F82520002AE2D17268013272603C
:1065B00043F82560BDE8F0812046FDF76BFF002819
:1065C000AFD02046FDF76CFFABE7226822B90A4B3B
:1065D0001A6801321A6022602B46551EC4E706492C
:1065E0000B6801330B601360BDE7BDE8F04118474D
:1065F0004CED00209410002034FE00202D410000BE
:1066000003682BB903490A6801320A601346026025
:10661000581E704734FE00202DE9F04FC54C016034
:10662000302389B006468360C0220021204634F022
:10663000B7FAC14B746000211846C02234F0B0FA9A
:10664000BE4DBF4A0024C6E90302C2E90054C2E9B4
:106650000244C2E90444FFF74DFD02882A80B9488C
:1066600001232246214605F08DFFB64AB649304641
:10667000FFF7E8FDB548012127F02EFFB34AB449E2
:106680003046FFF7DFFDB34CB348B44A84600123C2
:106690000021C4E900234360B14B2174C4E9021115
:1066A000C4E90511C4E90711A18484F864100360EA
:1066B00001F07EF8A84AAB493046FFF7C3FDAA4A6D
:1066C000AA4B1360012151603046A949FFF7BAFD7A
:1066D000A84AA94B1360012151603046A749FFF732
:1066E000B1FDA74CA74B0122C4E90032FFF7F2FC31
:1066F000A060A54922463046FFF7A4FDDFF840A37D
:10670000A24AA3480123CAE90023C0E9013A0022B2
:10671000A04BAAF81020CAE90222CAE90522CAE958
:106720000722CAE90922CAE90B228AF81220CAF80C
:1067300034208AF843200360114600F0CDFB944AD0
:1067400095493046FFF77EFDDFF8F8929348012324
:10675000C0E90139C9F80430914BC9F80030002272
:10676000904BA9F81020C9E90222C9E90522C9E91C
:106770000722C9E90922C9E90B2289F81220C9F8C0
:10678000342089F843200360114600F059FB834A06
:1067900085493046FFF756FD844A854B1360012337
:1067A000844953603046FFF74DFD834A834B1360A5
:1067B0000123834953603046FFF744FD814D8249F0
:1067C000296000230122C5E90123C5E90333C5E996
:1067D0000533C5E90733C5E90933C5E90B33C5E915
:1067E0000D33C5E90F33C5E91133C5E91333C5E9E5
:1067F0001533C5E91733C5E91933C5E91B33C5E9B5
:106800001D33EB677148C5E920332946C5E92233BA
:10681000C5E92433C5E92633C5E92833C5E92A3358
:10682000C5E92C33C5E92E33C5F8C03085F8C4302E
:1068300012F0DCFB654A66493046FFF703FD654A06
:10684000654B13600123654953603046FFF7FAFC3E
:10685000634A644B13600123634953603046FFF77A
:10686000F1FC624801210AF055FD604A604930465A
:10687000FFF7E8FC5F48012105F054FE5D4A5E49E0
:106880003046FFF7DFFC5D48012127F03DFE5B4A03
:106890005B493046FFF7D6FCDFF8ACB1594801231D
:1068A000CBF804304360584BCBF80030574BC0F85E
:1068B00008B000210360CBE90211CBE90511CBE957
:1068C0000711CBE909118BF810108BF8241100F097
:1068D000FBFF4C4A4E493046FFF7B4FC4D4A4E4B45
:1068E000136001234D4953603046FFF7ABFC4C4A1F
:1068F0004C4B136001234C4953603046FFF7A2FC18
:106900004A4C4B4B236001236360FFF7E3FBA0601D
:10691000484922463046FFF795FCDFF8308146486B
:106920000123C8F804304360444BC8F8003000220B
:106930008EE000BF40FB002050FA002028F300202A
:1069400038FA002034F3002028FE002010FB00203D
:1069500090FE0020A0EE0020A8ED0020CC3D0020FD
:10696000083A002060FE002000FC00208441002046
:10697000A0FE002010FC0020FC410020A8FE00200A
:1069800028FB00209839002050FE00200C3E0020FB
:1069900050EE0020C838002040FE00205CEE0020B1
:1069A0001C3E0020FC38002044FE0020F0ED0020BA
:1069B000A83A002070FE002000EE0020D83A002007
:1069C00078FE002030F00020EC3D002010EE00208A
:1069D00070FD0020C0ED0020503A002068FE00202D
:1069E000D0ED002050430020CCFE002088ED002098
:1069F00058FE002054F500202CFE00201CFB002037
:106A000094FE0020B4ED0020DC3D00202C3A002054
:106A100064FE002008FC0020C0410020A4FE0020ED
:106A200018FC00202C420020ACFE002034FB00208B
:106A3000B439002054FE002068EE00202C3E0020D7
:106A4000C0F1002004F2002008EF002048F20020EE
:106A5000AC4BC0F8088003601146C8E90222C8E9BF
:106A60000522C8E90722C8E90922C8E90B22C8E9BA
:106A70000D2288F81020C8F83C2088F86C2000F01F
:106A800027FBA14AA1493046FFF7DCFBA04FA148F4
:106A900001237B604360A04B3B6000229F4B8760DB
:106AA00003601146C7E90222C7E90522C7E90722A8
:106AB000C7E90922C7E90B22C7E90D223A74FA6334
:106AC00087F86C2000F0B8FA924A95493046FFF7F3
:106AD000B9FB944A944B13600123944953603046A8
:106AE000FFF7B0FB924A934B136001239249536026
:106AF0003046FFF7A7FB914C91492160002301220A
:106B0000C4E90123C4E90333C4E90533C4E9073305
:106B1000C4E90933C4E90B33C4E90D33C4E90F33C5
:106B2000C4E91133C4E91333C4E91533C4E9173395
:106B3000C4E91933C4E91B33C4E91D33E367814851
:106B4000C4E920332146C4E92233C4E92433C4E92B
:106B50002633C4E92833C4E92A33C4E92C33C4E911
:106B60002E33C4F8C03084F8C4301CF029FE754AB6
:106B700075493046FFF766FB744A754B1360012375
:106B8000744953603046FFF75DFB734A734B1360E3
:106B90000123734953603046FFF754FB71480121CC
:106BA00011F080F86F4A70493046FFF74BFB6F4A8F
:106BB0006F4B136001236F4953603046FFF742FB70
:106BC0006D4A6E4B136001236D4953603046FFF7E9
:106BD00039FB6C4A6C4B136001236C49536030469F
:106BE000FFF730FB6A4A6B4B136001236A4953601D
:106BF0003046FFF727FB694A02A93046CDE9022A51
:106C0000CDE9049BCDE9068701F064FDF368644893
:106C10000193FFF7F5FC019B604A43F82020F368DD
:106C200060480193FFF7ECFC019B43F820A05E480D
:106C3000D6F80CA0FFF7E4FC4AF820905B48D6F8A1
